:020000040800F2
:10000000D0450020C1010008171700088B15000813
:1000100015170008490300085D21000800000000D2
:10002000000000000000000000000000592000084F
:100030004B03000800000000391700085B2000088F
:10004000DB010008DB010008DB010008DB01000820
:10005000DB010008DB010008DB010008DB01000810
:10006000DB010008DB010008DB010008DB01000800
:10007000DB010008DB010008DB010008DB010008F0
:10008000DB010008DB010008DB010008DB010008E0
:10009000DB010008DB010008DB0100084D0300085C
:1000A000DB010008DB010008DB010008DB010008C0
:1000B000DB010008DB010008DB010008DB010008B0
:1000C000DB010008DB010008DB010008DB010008A0
:1000D000DB010008DB010008DB010008DB01000890
:1000E000DB010008DB010008DB010008DB01000880
:1000F000DB010008DB010008DB010008DB01000870
:10010000DB010008DB010008DB010008DB0100085F
:10011000DB010008DB010008DB010008DB0100084F
:10012000DB010008DB010008DB010008DB0100083F
:10013000DB010008DB010008DB010008DB0100082F
:10014000DB010008DB010008DB010008DB0100081F
:10015000DB010008DB010008DB010008DB0100080F
:10016000DB010008DB010008DB010008DB010008FF
:10017000DB010008DB010008DB01000800000000D3
:10018000DB010008DB010008DB010008DB010008DF
:10019000DB010008DB010008DB010008DB010008CF
:1001A000DB010008DB010008DB010008DFF80CD0F0
:1001B00000F074F800480047FD220008D0450020F8
:1001C0000648804706480047FEE7FEE7FEE7FEE7F1
:1001D000FEE7FEE7FEE7FEE7FEE7FEE7092100088F
:1001E000AD0100082DE9F05F0546002092469B46D0
:1001F00088460646814640241BE02846414647463D
:10020000224600F03BF853465A46C01A914110D39B
:1002100011461846224600F022F82D1A67EB010815
:100220004F4622460120002100F019F817EB000983
:100230004E41201EA4F10104DFDC484631462A4627
:100240004346BDE8F09F10B5044604E00B7800F883
:10025000013B03B1491C521EF8D2204610BD202A92
:1002600004DB203A00FA02F1002070479140C2F10D
:10027000200320FA03F3194390407047202A04DB3F
:10028000203A21FA02F00021704721FA02F3D0400F
:10029000C2F120029140084319467047064C074DB1
:1002A00006E0E06840F0010394E807009847103446
:1002B000AC42F6D3FFF77EFF28240008482400084C
:1002C0000146014800F09FBD3400002010B50448ED
:1002D00000F0ABFD042801D0012010BD002010BDAE
:1002E0003400002082B001208DF800009DF800004D
:1002F000012802D0012002B07047024802B000F08D
:10030000AABD00003400002038B500240093134635
:100310000A460146034800F00FFE00B101242046C2
:1003200038BD00003400002038B500240093134687
:100330000A460146034800F0D9FE00B101242046D8
:1003400038BD000034000020FEE7704710B54FF4C0
:100350008041054800F03BF94FF4807000F040F810
:1003600002490120087010BD001802400000002062
:10037000002200F001B8000030B50E4B0546012008
:100380005C7A002C14D1587A1C54587A03EB800004
:1003900045605D7A03F108002A54587A421C5A726B
:1003A000303008703A2048702F208870CC700020C0
:1003B00030BD00001001002070B5044600F010F9B7
:1003C0000546601C02D004480078044400F008F997
:1003D000401BA042FAD370BD080000207047000007
:1003E000044910B50A68024202D00860FFF7F6FF20
:1003F00010BD0000143C01402DE9F84FDFF890B12A
:1004000000224FF001084FF0030A4FF00F090BF1E3
:10041000040E00BF0B6808FA02F42340A3426ED119
:100420004D68022D01D0122D0ED1D50800EB850CA0
:10043000DCF820505607F70E09FA07F6B5430E69A7
:10044000BE402E43CCF82060066855000F790AFAAA
:1004500005FC07F0030726EA0C06AF4037430760A8
:100460004E68012E05D0022E03D0112E01D0122E7F
:100470000ED18768CE6827EA0C07AE403E438660FF
:100480004668A6430C79C4F3001494403443446096
:10049000C4688E6824EA0C04AE402643C6604C68EB
:1004A000E4006FD53B4C256845F480452560246801
:1004B00022F0030504F480440094374C2E19D6F83A
:1004C000084895072F0F09FA07F5AC43334DA842AA
:1004D00001D100252EE0324DA84201D1012529E0AD
:1004E000304DA84201D1022524E02F4DA84201D170
:1004F00003251FE02D4DA84202D104251AE041E05A
:100500002B4DA84201D1052514E02A4DA84201D166
:1005100006250FE0284DA84201D107250AE0274D06
:10052000A84201D1082505E0254DA84201D10925A1
:1005300000E00A25BD402543C6F80858DBF8004016
:100540005D464E689C43F60300D51C432C60DEF8E4
:10055000004075464E689C43B60300D51C432C6092
:100560000B4D08352C684E689C43F60200D51C43A1
:100570002C60074D0C352C684E689C43B60200D5A4
:100580001C432C60521C102AFFF444AFBDE8F88FC6
:10059000003C01404438024000300140000002406D
:1005A0000004024000080240000C0240001002401B
:1005B0000014024000180240001C024000200240CB
:1005C000002402400069084000D0012070474269C1
:1005D0004A40426170470AB1816170470904FBE7F4
:1005E00001488068704700000800002002488168C8
:1005F0000278114481607047080000200B4810B554
:10060000016841F400710160016841F4806101609A
:10061000016841F480710160032000F097F8002028
:1006200000F006F800F024F8002010BD003C024065
:1006300070B50D4D04464FF47A712878B1FBF0F097
:100640000A490968B1FBF0F000F087FF48B9102CA7
:1006500007D200222146501E00F058F800206C609E
:1006600070BD012070BD00000800002014000020B3
:100670001F4808B5016841F480410160006800F43A
:10068000804000901A48001F016841F080510160CD
:10069000006800F080500090072000F057F800221A
:1006A00011466FF00B0000F031F8002211466FF098
:1006B0000A0000F02BF8002211466FF0090000F04C
:1006C00025F800221146501F00F020F800221146A4
:1006D000101F00F01BF800221146901E00F016F8C3
:1006E0000022BDE808401146501E00F00FB800007F
:1006F0004438024000F01F0201219140400980006F
:1007000000F1E020C0F8001170470000F0B40E4B7B
:100710001B680C46C3F30223C3F10705042D00D95F
:100720000425191D072901D2002300E0DB1E012644
:1007300006FA05F1491E214099409E40761E16405A
:100740003143F0BC00F0E8BF0CED00E0064900F0DA
:10075000070208684FF6FF03184040EA0220034AE8
:1007600010430860704700000CED00E00000FA053F
:100770002DE9F0470E46050065D0DFF81481D8F862
:100780000000F7B200F00F00B04207D288F8007006
:10079000D8F8000000F00F00B04254D128683D4C5A
:1007A000810712D5400703D5206840F4E05020604F
:1007B0002878000703D5206840F460402060206856
:1007C000A96820F0F000084320602878C0072DD0E9
:1007D000304968680839012812D0022813D003284C
:1007E00011D00968890700292DDA216821F0030159
:1007F00001432160FFF7F4FE814641F2883A0EE0A2
:1008000009688903EFE709688901ECE7FFF7E8FE6B
:10081000A0EB0901514502D90320BDE8F08720680B
:10082000696800F00C00B0EB810FEFD1D8F8001030
:10083000404601F00F01B14207D90770006800F08F
:100840000F00B04201D00120E7E72878400705D526
:100850002068E96820F4E050084320602878000709
:1008600006D52068296920F4604040EAC100206074
:1008700000F01CF82168084AC1F30311515CC8401C
:10088000064908600020FFF7D3FE0020C5E70000FE
:10089000003C0240083802401824000814000020E0
:1008A000014800687047000014000020154810B58A
:1008B000006810F00C02144813D01449042A0FD019
:1008C000082A0ED10F4C241F2268236802F03F0231
:1008D0005B0207D52068C0F38810A0FB010106E089
:1008E000084610BD2168C1F38811A1FB0001002357
:1008F000FFF778FC2168C1F30141491C4900B0FBB6
:10090000F1F010BD083802400024F40040787D0169
:100910002DE9F84F050076D02878DFF8F8B2BE4C04
:10092000C00749D0DBF800105846C1F38101012906
:1009300008D00068C0F3810002280AD1201D006899
:10094000400206D52068800336D568680028E2D0CA
:1009500032E06868B0F5803F10D0B0F5A02F206875
:1009600010D020F480302060206820F480202060A7
:100970006868A0B1FFF734FE06460CE0206840F43A
:100980008030F4E740F480202060F7E7FFF728FE8E
:10099000801B642873D820688003F7D50CE0FFF72C
:1009A0001FFE064605E000BFFFF71AFE801B642805
:1009B000F0D820688003F7D42878DFF860828007B9
:1009C0004FF000093ED5DBF80010584611F00C0F2F
:1009D00009D00068C0F3810002280BD18D48001FA8
:1009E0000068400206D42068800715D5E868012811
:1009F00009D111E0E868B8B10120C8F80000FFF79C
:100A0000EFFD064605E002E1FFF7EAFD801B022844
:100A1000C0D820688007F7D52068296920F0F80041
:100A200040EAC10020600DE0C8F80090FFF7D8FD53
:100A3000064604E0FFF7D4FD801B02281FD820687B
:100A40008007F7D42878000722D5724E7448696968
:100A50006C3671B101210160FFF7C2FD074604E069
:100A6000FFF7BEFDC01B022809D830688007F7D504
:100A70000EE0C0F80090FFF7B3FD074605E083E005
:100A8000FFF7AEFDC01B02287ED830688007F7D480
:100A90002878400768D5DFF87CA100270AF1380ADA
:100AA000DAF80000C0000BD4DAF8001041F08051F1
:100AB000CAF80010DAF80000012700F0805000901A
:100AC000584E3068C00510D4306840F480703060F3
:100AD000FFF786FD009005E0FFF782FD0099401AC0
:100AE000022851D83068C005F6D54A4EA868683645
:100AF00001280FD00528306810D020F001003060A8
:100B0000306820F004003060A868B8B1FFF768FDD5
:100B100000900FE0306840F00100F4E740F004007E
:100B20003060F7E7FFF75CFD0099411A41F2883029
:100B3000814264D830688007F4D50EE0FFF750FD9D
:100B4000009007E0FFF74CFD0099411A41F2883010
:100B5000814254D830688007F4D42FB1DAF80010FD
:100B600021F08051CAF80010A869C0B3DBF800106A
:100B7000C1F3810102294AD00228484607D0C8F8AB
:100B80006000FFF72DFD00E039E005463AE04746FA
:100B9000C8F86000FFF724FD064604E0FFF720FDDB
:100BA000801B02282BD820688001F7D4D5E90701E3
:100BB0000843A96A1C4A490802EB01416A6A41EAF2
:100BC0008211084395F82C1040EA01611148001F7A
:100BD000016001203866FFF703FD054605E014E0DB
:100BE000FFF7FEFC401B022809D820688001F7D5DA
:100BF0000BE000BFFFF7F4FC401B022802D90320E2
:100C0000BDE8F88F20688001F4D40020F8E70120C7
:100C1000F6E7000008380240003802400000474272
:100C2000800E4742007000400000FFFFF0B5426EAA
:100C3000120E93090B70C2F383034B7002F0030290
:100C40008A70426E120CCA70B0F86420120A0A71DF
:100C500090F864204A71826E4FF6FF73120E03EA19
:100C60000212CA80826ECB88C2F3074243EA121393
:100C7000CB8002F00F020A72B0F86820C2F307229C
:100C8000D3094B72C2F380138B72C2F34013CB7241
:100C9000C2F300130B7300264E73446C4FF40077BD
:100CA00001236CB1012C43D0026840F2FF519163E3
:100CB000816B41F08051816380F834300120F0BDB8
:100CC0009207120D0A6190F868200C6944EA8202CA
:100CD0000A61C26E0C69120E44EA92140C61C2F3EE
:100CE000C2040C7502F007024A75C26EC2F30742D5
:100CF00054098C75C2F38204CC759207520F0A76A0
:100D0000B0F86C20C2F307240A7E42EAD4120A76B5
:100D10000A69521C42650D7EAD1CAA4042650D7ADF
:100D200003FA05F585656D0A6A43C0E917271CE0DB
:100D300090F868209206920A0A61C26E0C69120E3F
:100D400044EA02220A61C26E0C69C2F307421443EC
:100D50000C61B0F86C20C2F307240A69521C4FEAF8
:100D600082224265C0E916720766C4F3801201F858
:100D7000192F4FEA84624FEA52624A7010F86C2FC2
:100D80004C7844EAD2144C7002F07F028A704268B8
:100D90004FEA12624FEAD214CC70C2F341140C71C4
:100DA000C2F382044C714FEA82724FEA12728A7166
:100DB00042688C79C2F3074244EA92148C71C2F300
:100DC0004014CC710E7202F001024A728288C2F3A2
:100DD00007224FEAD2148C72C2F38014CC72C2F391
:100DE00040140C73C2F300144C73C2F381048C736F
:100DF00002F00302CA7300794FEA500008744B7482
:100E00004FF00000F0BD426C0A60826C4A60C26C18
:100E10008A60026DCA60426D0A61826D4A61C26D6C
:100E20008A61006EC8610020704770B50446B0F852
:100E3000500000250104206800F0E9FD18B1A16B05
:100E40000143A16304E00021206800F08CFC05460A
:100E5000C5F3432070BD70B5040004D094F834008D
:100E6000002510B105E0012070BD2577204600F077
:100E700037F8032084F83400204600F007F8A56313
:100E80002563012084F83400002070BDFEB50025E4
:100E9000044676200095CDE901502B462A46294686
:100EA000206800F066FC0D4E46F8A05F206800F058
:100EB00072FC012535600220FFF77EFA204600F023
:100EC000BEFF20B9204600F047FF002805D084F877
:100ED0003450A16B0143A1630120FEBD0080254277
:100EE000F0B50068104987B088421BD10F480168EF
:100EF00041F4006101600068022400F40060059084
:100F00004FF48850012503260C278DE8F10069462F
:100F10000748FFF771FA04208DE8F100694605489B
:100F2000FFF76AFA07B0F0BD002C014044380240D8
:100F300000080240000C02402DE9F04F87B09A46AD
:100F400017460E460446DDF840B0FFF749FB009017
:100F50003EB194F83400012807D0A06B40F0005057
:100F60000FE0A06B40F000600BE04FF00008C4F809
:100F70003880E06D07EB0A01814204D9A06B40F094
:100F80000070A0637DE0032084F834002068C0F87E
:100F90002C80606C012800D07F024FF40071206823
:100FA00000F048FC40F2FF59012530B12268C2F838
:100FB0003890A16B0143A16361E04FF0FF300190D5
:100FC0004FEA4A200290902003900220CDE90408C5
:100FD000069501A9206800F0B0FBBAF1010F06D90F
:100FE000022020633946206800F09AFC04E0256363
:100FF0003946206800F0ADFC0028D7D140F22A38ED
:101000002068416B11EA080F22D1406B000409D51A
:101010000027206800F0C3FB46F827007F1C082F3C
:10102000F7D32036BBF1000F05D0FFF7D9FA0099AE
:10103000411A5945E4D32168C1F83890A06B40F0BB
:101040000040A06384F83450032007B0BDE8F08F5F
:10105000416BC90509D5BAF1010F06D9616C0329A5
:1010600003D000F005FD0028A0D12068416B0907DE
:1010700009D5C0F83890A06B40F0080028E084F84B
:1010800034500120E1E7416B890705D5C0F838905D
:10109000A06B40F002001BE0416B89061AD5C0F836
:1010A0003890A06B40F0200012E000BF00F077FB0A
:1010B00001C6BBF1000F05D0FFF792FA0099411A63
:1010C000594507D32168C1F83890A06B40F0004023
:1010D000A063D4E72068416B8902E7D42168C1F896
:1010E000389084F834500020AFE700002DE9F04F2D
:1010F00087B09A4616460D460446FFF771FA0690E9
:101100003DB194F83400012807D0A06B40F00050A6
:101110000DE0A06B40F0006009E00020A063E26DEC
:1011200006EB0A01914204D9A06B40F00070A06365
:1011300090E0032184F8341021688146C862606C15
:10114000012800D076024FF40071206800F072FB95
:1011500040F2FF58012730B12268C2F83880A16BF5
:101160000143A16317E0BAF1010F06D920202063E3
:101170003146206800F096FC05E0102020633146DF
:10118000206800F0A8FC060008D02168C1F838806B
:10119000A06B3043A06384F834705BE04FF0FF3005
:1011A00000904FEA4A200190902002904846CDE9F5
:1011B0000407CDF80C90B9466946206800F0BDFAE6
:1011C00040F21A3B22E0406B40040AD55FF0000772
:1011D00005EB8701206800F0F5FA7F1C082FF7D394
:1011E0002035109830B1FFF7FBF90699411A109895
:1011F00081420BD32168C1F83880A06B3043A063D3
:1012000084F83490032007B0BDE8F08F2068416B6C
:1012100011EA0B0FD7D0416BC9050FD5BAF1010FF9
:101220000CD9616C032909D000F022FC30B122688E
:10123000C2F83880A16B0143A16309E02068416BCB
:10124000090709D5C0F83880A06B40F0080014E009
:1012500084F834900120D6E7416B890705D5C0F8A2
:101260003880A06B40F0020007E0416BC0F8388086
:10127000C90604D5A06B40F01000A063E8E784F82D
:1012800034900020BFE770B5040005D00025A562AA
:1012900094F8510010B106E0012070BD84F8505060
:1012A000204600F031F8022084F8510020680168DF
:1012B00021F040010160D4E901010843D4E903129F
:1012C0001143084361690843218B01F4007108430D
:1012D000E1690843216A0843A16A0843216808605C
:1012E000A069042101EA1040616A0843216848604E
:1012F0002068C16921F40061C1616565012084F83D
:101300005100002070BD000070B50068134986B020
:10131000884221D112480024016841F480510160C3
:10132000006801AA00F48050059010200090012070
:10133000032582E831000B4E69463046FFF75CF822
:10134000E020009001A9022081E8310005200490EE
:1013500069463046FFF750F806B070BD00300140D6
:1013600044380240000002402DE9F84F044690F84E
:10137000500000260A9F9A4693460D464FF00108FA
:1013800001280ED0012084F85000FFF729F981468A
:1013900094F85100616801280CD0B1F5827F07D123
:1013A00002E00220BDE8F88FA16809B9042801D045
:1013B0000226BDE055B1BBF1000F07D0BAF1000F16
:1013C00004D094F85100012802D004E00126AFE0D7
:1013D000052084F8510000206065C4F838B0A4F8F6
:1013E0003EA0A4F83CA02563A4F836A0A4F834A03D
:1013F0002064606420680168490603D4016841F0F4
:1014000040010160E068B0F5006F606804D0E8B3A7
:10141000E08E01283BD06AE010B1E08E01282ED189
:10142000216835F8020BC860E08E401EE08626E099
:10143000B8F1000F0DD0E08E58B12068816889079F
:1014400007D535F8021BC160E08E401EE0864FF0E4
:101450000008E08F58B120688168C90707D0C068CC
:101460002BF8020BE08F401EE0874FF00108781C3C
:1014700005D0FFF7B5F8A0EB0900B84246D2E08EE0
:101480000028D5D1E08F0028D2D136E0FFE72168CF
:1014900015F8010B0873E08E401EE08627E000BFC0
:1014A000B8F1000F0DD0E08E58B12068816889072F
:1014B00007D515F8011B0173E08E401EE0864FF042
:1014C0000008E08F58B120688168C90707D0C0685C
:1014D0000BF8010BE08F401EE0874FF00108781CED
:1014E00005D0FFF77DF8A0EB0900B8420ED2E08EE0
:1014F0000028D5D1E08F0028D2D13B46012202211D
:101500002046CDF8009000F05CFD08B103260FE006
:101510004A463946204600F044FD18B101262020F5
:10152000606505E0A06818B92068C168806800900F
:10153000012084F85100002084F85000304631E743
:101540004FF0E0210428086903D020F0040008616E
:10155000704740F00400FAE7704710B5401EB0F144
:10156000807F01D3012010BD4FF0E02460610F2186
:10157000601700F0D1F80020A06107202061002052
:1015800010BD10B5FFF7E8FF10BDFEE710B5044928
:101590000448FEF7EDFE0249491E087010BD000028
:1015A0000300002004240008F0B5374887B0002469
:1015B000016841F001010160016801F0010105913C
:1015C000016841F002010160016801F0020105912A
:1015D000016841F004010160016801F00401059116
:1015E000016841F008010160016801F008010591FE
:1015F000016841F040010160016801F0400105917E
:10160000016841F0800101600068204E00F0800018
:101610004FF4C0450590002229463046FEF7DBFF17
:101620001B4F00221B213846FEF7D5FFB015009056
:101630001848CDE9010469461748FEF7DDFE00951C
:101640000125CDE90154694630460394FEF7D4FEE6
:101650004FF4FF5002268DE8510069463846FEF7E8
:10166000CBFE1B2003948DE8610069463846FEF7E7
:10167000C3FE012200211720FFF748F81720FFF7CB
:1016800039F807B0F0BD00003038024000180240C1
:10169000000C0240000011100000024006480549FD
:1016A0000160002141608160C160016141610321ED
:1016B00081617047002C014034000020104810B5B3
:1016C0000E4901604FF48271416000218160C16068
:1016D0004FF400720161C0E90512C161016241620B
:1016E00081620A21C162FFF7CEFD002805D0BDE866
:1016F00010404F2103A000F032BD10BD003001406A
:10170000B80000202E2E2F5372632F7370692E6342
:1017100000000000FEE770470907090E002806DAFE
:1017200000F00F0000F1E02080F8141D704700F178
:10173000E02080F80014704770470A6842624A68E7
:101740008262D1E902231A43D1E904310B43C16A11
:101750001A4321F0F7011143C1620020704700686D
:1017600000F00300704708B508441430009000688A
:1017700008BD70B50DF1100C11439CE870002343B7
:10178000194329434268314347F6FF639A430A43AA
:101790004260002070BD0321016000207047D0F836
:1017A000800070470A688260D1E901231A43D1E9B9
:1017B00003310B43C1681A436FF30B011143C1603E
:1017C000002070470968C0F880100020704710B5ED
:1017D00086B004463720CDE900104020029000205A
:1017E00003904FF48060049069462046FFF7DAFFCB
:1017F00041F288323721204600F086F906B010BD4C
:1018000010B504460A4886B001432920CDE90010EE
:1018100040200290002003904FF4806004906946BD
:101820002046FFF7BFFF204600F024FA06B010BDA7
:101830000000108010B586B004461020CDE90010DD
:1018400040200290002003904FF48060049069468D
:101850002046FFF7A7FF41F288321021204600F012
:1018600053F906B010BD000030B585B00024054620
:10187000009401944FF480600294CDE903406946DE
:101880002846FFF78FFF0B484FF4FA510068B0FB72
:10189000F1F041F288314843401E03D24FF000403E
:1018A00005B030BD696B0906F6D540F2FF50A8635C
:1018B0002046F5E71400002070B585B004464FF4CB
:1018C000D570009008204026CDE901060025C00112
:1018D000CDE9035069462046FFF764FF0F484FF4F7
:1018E000FA510068B0FBF1F041F288314843401EE4
:1018F00002D24FF000450DE0616B11F0450FF6D0BC
:10190000606B400702D5A663042503E0606B4006C8
:1019100000D5A66305B0284670BD00001400002065
:1019200010B586B004461220CDE900104020029088
:10193000002003904FF48060049069462046FFF732
:1019400031FF41F288321221204600F0DDF806B066
:1019500010BD10B586B004461120CDE9001040201E
:101960000290002003904FF4806004906946204666
:10197000FFF718FF41F288321121204600F0C4F829
:1019800006B010BD10B586B004460720CDE9002092
:1019900040200290002003904FF48060049069463C
:1019A0002046FFF7FFFE41F288320721204600F073
:1019B000ABF806B010BD10B586B004460021022079
:1019C000CDE90010C020CDE902014FF48060049001
:1019D00069462046FFF7E6FE204600F023F906B0F0
:1019E00010BD10B586B004460920CDE90010C02016
:1019F0000290002003904FF48060049069462046D6
:101A0000FFF7D0FE204600F00DF906B010BD10B56E
:101A100086B004460D20CDE9001040200290002041
:101A200003904FF48060049069462046FFF7BAFEA9
:101A300041F288320D21204600F066F806B010BD54
:101A400030B585B00C46054600210320CDE90010D5
:101A50004020CDE902010001049069462846FFF7C5
:101A6000A1FE22460321284600F024F905B030BD2E
:101A700010B586B0044600210C20CDE900104020AE
:101A8000CDE902010001049069462046FFF78AFE75
:101A9000034A0C21204600F037F806B010BD0000C4
:101AA00000E1F50510B586B004461920CDE9001017
:101AB00040200290002003904FF48060049069461B
:101AC0002046FFF76FFE41F288321921204600F0D0
:101AD0001BF806B010BD10B586B004461820CDE93D
:101AE000001040200290002003904FF4806004908A
:101AF00069462046FFF756FE41F2883218212046FB
:101B000000F002F806B010BD444B10B51B684FF44E
:101B1000FA54B3FBF4F353435B1E02D24FF0004080
:101B200010BD426B12F0450FF6D0426B520703D541
:101B300004218163084610BD426BD20702D0012107
:101B4000816303E00269D2B28A4201D0012010BD54
:101B500040F2FF5181630021FFF705FE3049084242
:101B600001D1002010BD002802DA4FF0007010BD36
:101B7000410001D5402010BD810001D5802010BD5D
:101B8000C10002D54FF4807010BD010102D54FF4A1
:101B9000007010BD410102D54FF4806010BDC1013D
:101BA00002D54FF4006010BD010202D54FF4805001
:101BB00010BD410202D54FF4005010BD810202D584
:101BC0004FF4804010BDC10202D54FF4004010BD5B
:101BD000410302D54FF4003010BD810302D54FF40C
:101BE000802010BDC10302D54FF4002010BD0104B8
:101BF00002D54FF4801010BD410402D54FF40010FF
:101C000010BD810402D54FF4800010BD000702D53D
:101C10004FF4000010BD4FF4803010BD14000020C0
:101C200008E0FFFD12494FF4FA520968B1FBF2F1E6
:101C300041F288325143491E02D24FF000407047B2
:101C4000426B12F0450FF6D0416B490703D50421D2
:101C5000816308467047416BC90703D00121816346
:101C60000846704740F2FF51816300207047000032
:101C7000140000200E494FF4FA520968B1FBF2F14A
:101C800041F288325143491E02D24FF00040704762
:101C9000426B12F0450FF6D0416B490703D5042182
:101CA00081630846704740F2FF518163002070470E
:101CB000140000201F4B10B51B684FF4FA54B3FBFF
:101CC000F4F341F2883463435B1E02D24FF00040CC
:101CD00010BD446B14F0450FF6D0436B5B0703D582
:101CE00004218163084610BD436BDB0702D001214C
:101CF000816303E00369DBB28B4201D0012010BD98
:101D000040F2FF5181630021FFF72DFD10F4604F79
:101D100004D0410406D54FF4005010BD000C1080D3
:101D2000002010BD000402D54FF4805010BD4FF4C8
:101D3000803010BD1400002010B5064C012020702A
:101D4000FEF7C4FA18B9207820F00100207020783E
:101D500010BD00000100002010B590B00446012025
:101D6000ADF838002068FFF7FAFC002864D0606CFA
:101D7000032842D02068FFF71EFE00285AD1002118
:101D80002068FFF7F0FC606704212068FFF7EBFC98
:101D9000A06708212068FFF7E6FCE0670C212068B7
:101DA000FFF7E1FCC4F88000606C032825D00EA981
:101DB0002068FFF745FE00283CD1606C03281CD04A
:101DC000BDF83800206501042068FFF70AFE0028EE
:101DD00030D100212068FFF7C6FC6066042120682E
:101DE000FFF7C1FCA06608212068FFF7BCFCE06695
:101DF0000C212068FFF7B7FC206704212068FFF75B
:101E0000B2FC000DE06403A92046FEF70FFFB4F812
:101E10005000002302042068FFF7B4FD002809D118
:101E200004F1100007C88DE8070094E80F00FFF7E1
:101E3000A0FC002010B010BD4FF08060FAE72DE943
:101E4000F8430025044600950068FFF70DFD0028C3
:101E50001AD12068FFF730FD4FF080784FF6FF76FB
:101E6000D8B14FF08057A5640098411C0091B04252
:101E70001AD000212068FFF7AAFC20B900212068B1
:101E8000FFF7BEFC10B13846BDE8F883002120689A
:101E9000FFF769FCC00FE7D01FE00127A764009897
:101EA000411C0091B04201D14046EDE7002120687D
:101EB000FFF78DFC0028E7D14FF080412068FFF745
:101EC0009FFC0028E0D100212068FFF74CFCC10FE7
:101ED000E5D0400001D5676400E065640020D3E7E9
:101EE00070B5064C054601202070FEF7FBF918B9C5
:101EF0002846FFF721FF2070207870BD01000020E8
:101F000010B5124888B014460078C00702D00320EC
:101F100008B010BDC1B1012905D0022908D003299C
:101F20000CD00420F4E76846FEF7CAF906980AE0E8
:101F30006846FEF7C5F90798208005E06846FEF779
:101F4000BFF90798400A20600020E1E70100002067
:101F500070B51D46164608460124A31E2A46314682
:101F6000FEF7D2F928B900BFFEF7B0F90028FBD17F
:101F70000024204670BDFFF7DFBE000070B51D468F
:101F8000164608460124A31E2A463146FEF7CCF920
:101F900028B900BFFEF79AF90028FBD1002420469B
:101FA00070BD38B50B46009204460022802100F037
:101FB00008F8002804D0606D40F020006065032020
:101FC00038BD2DE9F0411D4617460E460446DDF8A2
:101FD000188035E0681C33D02DB1FEF701FBA0EB73
:101FE0000800A8422CD32068416821F0E00141603C
:101FF0006068B0F5827F0BD1A068B0F5004F02D0C9
:10200000B0F5806F04D12068016821F040010160C3
:10201000A06AB0F5005F0AD1206801684DF6FF7232
:10202000114001602068016841F400510160012005
:1020300084F85100002084F850000320BDE8F081AE
:102040002068806836EA000004D00020B842C1D180
:102050000020F3E70120F9E7704710B5FEF7C6FA54
:10206000BDE81040FFF78DBA30B5254893B0002485
:10207000016841F080510160006800F080501190CB
:102080002048016821F4404141F48041016000682A
:10209000022500F44040119001200390102004908C
:1020A000009506950820CDE907404820CDE90905AF
:1020B00003200B906846FEF72BFC00B1FEE70F20D3
:1020C000CDE90C054FF48050CDE90E4002210CA85B
:1020D0001094FEF74DFB00B1FEE7FEF7E1FB4FF475
:1020E0007A71B0FBF1F0FFF738FA0420FFF728FA15
:1020F00000221146501EFEF709FB13B030BD000050
:1021000040380240007000401048016841F47001FE
:1021100001600F48016841F0010101600C4A002193
:102120000832116002680B4B1A400260031D0A4A14
:102130001A60026822F48022026005480C300160B7
:1021400002495806803908607047000088ED00E0B9
:1021500000380240FFFFF6FE10300024FEE7FEE7E5
:1021600002E008C8121F08C1002AFAD17047704760
:10217000002001E001C1121F002AFBD1704710B5F9
:102180000121122000F032F900204FF4C861401CF8
:1021900080B28842FBD30021192000F027F92C21BE
:1021A000062000F023F90121072000F01FF901218A
:1021B000082000F01BF90021092000F017F9312157
:1021C0000A2000F013F908210D2000F00FF900217A
:1021D0000B2000F00BF900210E2000F007F9002180
:1021E000112000F003F90421122000F0FFF804216F
:1021F000132000F0FBF83021142000F0F7F8402104
:10220000152000F0F3F88421162000F0EFF80021EB
:10221000172000F0EBF80021182000F0E7F800216B
:102220001A2000F0E3F86821BDE81040102000F00B
:10223000DDB8000010B507490446BE20087001F261
:10224000592240F2592000F03BF8204600F004F8F3
:10225000642010BD1C010020F0B5184E002147F687
:10226000FF734FF4167700BF06EB41025478957860
:1022700092F804C004EB0525D47804EB0C2492F802
:1022800005C092790CEB02224FF47A6C15FB0CF529
:1022900095FBF3F520F8115014FB0CF494FBF3F5C7
:1022A00000EB4104658012FB0CF292FBF3F2C91CB7
:1022B00089B2A280B942D7D9F0BD000075030020D1
:1022C000F8B50C4D16460F4604460022102128464C
:1022D000FEF781F9322000902346324639460648FF
:1022E000FFF742F80446012210212846FEF773F951
:1022F0002046F8BD00000240B80000202DE9F04F54
:10230000ADF5197DFEF77AF9FFF7AEFEFFF74CF950
:10231000FFF7C4F9FFF73AF9FFF7D0F9FFF72FFFFE
:10232000264E20213046FEF74DF90124244D8443EA
:102330004FF0190207D023A12648FDF784FFB246CB
:102340004FF4007B2FE024A1F6E7287858B36846C5
:10235000FFF770FF2CBB00266F460DF5167933464C
:10236000324631460FE000BF01EB410C491C37F902
:102370001C8007EB4C0C4644BCF90280BCF904C03D
:102380004344624489B28142EED396FBF0F1A9F84E
:10239000001093FBF0F192FBF0F0A9F80210A9F8FD
:1023A00004000020287059465046FEF70BF900281B
:1023B000CBD00DF5197D0020BDE8F08F000C024058
:1023C00000000020726F775F76616C7565732E6315
:1023D0007376000018000020617665726167655FA2
:1023E00076616C7565732E6373760000044A107015
:1023F000517002F2592202490220FFF761BF00002A
:102400001C010020E11E0008771F0008511F000872
:102410007D1F0008011F00080000000000000000F0
:1024200001020304060708094824000800000020F0
:102430001800000060210008602400081800002037
:10244000B8450000702100080001000000000000F5
:102450000100000010000000000000000024F40053
:04000005080001AD41
:00000001FF
