:020000040800F2
:1000000038760020C101000867170008DB150008DA
:100010006517000899030008AD21000800000000E2
:10002000000000000000000000000000A9200008FF
:100030009B0300080000000089170008AB2000089F
:10004000DB010008DB010008DB010008DB01000820
:10005000DB010008DB010008DB010008DB01000810
:10006000DB010008DB010008DB010008DB01000800
:10007000DB010008DB010008DB010008DB010008F0
:10008000DB010008DB010008DB010008DB010008E0
:10009000DB010008DB010008DB0100089D0300080C
:1000A000DB010008DB010008DB010008DB010008C0
:1000B000DB010008DB010008DB010008DB010008B0
:1000C000DB010008DB010008DB010008DB010008A0
:1000D000DB010008DB010008DB010008DB01000890
:1000E000DB010008DB010008DB010008DB01000880
:1000F000DB010008DB010008DB010008DB01000870
:10010000DB010008DB010008DB010008DB0100085F
:10011000DB010008DB010008DB010008DB0100084F
:10012000DB010008DB010008DB010008DB0100083F
:10013000DB010008DB010008DB010008DB0100082F
:10014000DB010008DB010008DB010008DB0100081F
:10015000DB010008DB010008DB010008DB0100080F
:10016000DB010008DB010008DB010008DB010008FF
:10017000DB010008DB010008DB01000800000000D3
:10018000DB010008DB010008DB010008DB010008DF
:10019000DB010008DB010008DB010008DB010008CF
:1001A000DB010008DB010008DB010008DFF80CD0F0
:1001B00000F09CF800480047E53B00083876002036
:1001C0000648804706480047FEE7FEE7FEE7FEE7F1
:1001D000FEE7FEE7FEE7FEE7FEE7FEE7592100083F
:1001E000AD0100082DE9F05F0546002092469B46D0
:1001F00088460646814640241BE02846414647463D
:10020000224600F063F853465A46C01A914110D373
:1002100011461846224600F04AF82D1A67EB0108ED
:100220004F4622460120002100F041F817EB00095B
:100230004E41201EA4F10104DFDC484631462A4627
:100240004346BDE8F09F40EA01039B0703D009E065
:1002500008C9121F08C0042AFAD203E011F8013BB2
:1002600000F8013B521EF9D2704710B5044604E075
:100270000B7800F8013B03B1491C521EF8D220460E
:1002800010BD30B50B46014600202022012409E0B4
:1002900021FA02F59D4205D303FA02F5491B04FA3F
:1002A00002F52844151EA2F10102F1DC30BD202A1E
:1002B00004DB203A00FA02F1002070479140C2F1BD
:1002C000200320FA03F3194390407047202A04DBEF
:1002D000203A21FA02F00021704721FA02F3D040BF
:1002E000C2F120029140084319467047064C074D61
:1002F00006E0E06840F0010394E8070098471034F6
:10030000AC42F6D3FFF756FFDC470008FC47000875
:100310000146014800F09FBD7810002010B5044848
:1003200000F0ABFD042801D0012010BD002010BD5D
:100330007810002082B001208DF800009DF80000A8
:10034000012802D0012002B07047024802B000F03C
:10035000AABD00007810002038B500240093134691
:100360000A460146034800F00FFE00B10124204672
:1003700038BD00007810002038B5002400931346E3
:100380000A460146034800F0D9FE00B10124204688
:1003900038BD000078100020FEE7704710B54FF41C
:1003A0008041054800F03BF94FF4807000F040F8C0
:1003B00002490120087010BD001802400000002012
:1003C000002200F001B8000030B50E4B05460120B8
:1003D0005C7A002C14D1587A1C54587A03EB8000B4
:1003E00045605D7A03F108002A54587A421C5A721B
:1003F000303008703A2048702F208870CC70002070
:1004000030BD00007411002070B5044600F010F9F2
:100410000546601C02D004480078044400F008F946
:10042000401BA042FAD370BD0C00002070470000B2
:10043000044910B50A68024202D00860FFF7F6FFCF
:1004400010BD0000143C01402DE9F84FDFF890B1D9
:1004500000224FF001084FF0030A4FF00F090BF193
:10046000040E00BF0B6808FA02F42340A3426ED1C9
:100470004D68022D01D0122D0ED1D50800EB850C50
:10048000DCF820505607F70E09FA07F6B5430E6957
:10049000BE402E43CCF82060066855000F790AFA5A
:1004A00005FC07F0030726EA0C06AF403743076058
:1004B0004E68012E05D0022E03D0112E01D0122E2F
:1004C0000ED18768CE6827EA0C07AE403E438660AF
:1004D0004668A6430C79C4F3001494403443446046
:1004E000C4688E6824EA0C04AE402643C6604C689B
:1004F000E4006FD53B4C256845F4804525602468B1
:1005000022F0030504F480440094374C2E19D6F8E9
:10051000084895072F0F09FA07F5AC43334DA84259
:1005200001D100252EE0324DA84201D1012529E05C
:10053000304DA84201D1022524E02F4DA84201D11F
:1005400003251FE02D4DA84202D104251AE041E009
:100550002B4DA84201D1052514E02A4DA84201D116
:1005600006250FE0284DA84201D107250AE0274DB6
:10057000A84201D1082505E0254DA84201D1092551
:1005800000E00A25BD402543C6F80858DBF80040C6
:100590005D464E689C43F60300D51C432C60DEF894
:1005A000004075464E689C43B60300D51C432C6042
:1005B0000B4D08352C684E689C43F60200D51C4351
:1005C0002C60074D0C352C684E689C43B60200D554
:1005D0001C432C60521C102AFFF444AFBDE8F88F76
:1005E000003C01404438024000300140000002401D
:1005F0000004024000080240000C024000100240CB
:100600000014024000180240001C0240002002407A
:10061000002402400069084000D001207047426970
:100620004A40426170470AB1816170470904FBE7A3
:1006300001488068704700000C0000200248816873
:1006400002781144816070470C0000200B4810B5FF
:10065000016841F400710160016841F4806101604A
:10066000016841F480710160032000F097F80020D8
:1006700000F006F800F024F8002010BD003C024015
:1006800070B50D4D04464FF47A712878B1FBF0F047
:100690000A490968B1FBF0F000F087FF48B9102C57
:1006A00007D200222146501E00F058F800206C604E
:1006B00070BD012070BD00000C000020180000205B
:1006C0001F4808B5016841F480410160006800F4EA
:1006D000804000901A48001F016841F0805101607D
:1006E000006800F080500090072000F057F80022CA
:1006F00011466FF00B0000F031F8002211466FF048
:100700000A0000F02BF8002211466FF0090000F0FB
:1007100025F800221146501F00F020F80022114653
:10072000101F00F01BF800221146901E00F016F872
:100730000022BDE808401146501E00F00FB800002E
:100740004438024000F01F0201219140400980001E
:1007500000F1E020C0F8001170470000F0B40E4B2B
:100760001B680C46C3F30223C3F10705042D00D90F
:100770000425191D072901D2002300E0DB1E0126F4
:1007800006FA05F1491E214099409E40761E16400A
:100790003143F0BC00F0E8BF0CED00E0064900F08A
:1007A000070208684FF6FF03184040EA0220034A98
:1007B00010430860704700000CED00E00000FA05EF
:1007C0002DE9F0470E46050065D0DFF81481D8F812
:1007D0000000F7B200F00F00B04207D288F80070B6
:1007E000D8F8000000F00F00B04254D128683D4C0A
:1007F000810712D5400703D5206840F4E0502060FF
:100800002878000703D5206840F460402060206805
:10081000A96820F0F000084320602878C0072DD098
:10082000304968680839012812D0022813D00328FB
:1008300011D00968890700292DDA216821F0030108
:1008400001432160FFF7F4FE814641F2883A0EE051
:1008500009688903EFE709688901ECE7FFF7E8FE1B
:10086000A0EB0901514502D90320BDE8F0872068BB
:10087000696800F00C00B0EB810FEFD1D8F80010E0
:10088000404601F00F01B14207D90770006800F03F
:100890000F00B04201D00120E7E72878400705D5D6
:1008A0002068E96820F4E0500843206028780007B9
:1008B00006D52068296920F4604040EAC100206024
:1008C00000F01CF82168084AC1F30311515CC840CC
:1008D000064908600020FFF7D3FE0020C5E70000AE
:1008E000003C024008380240744300081800002011
:1008F000014800687047000018000020154810B536
:10090000006810F00C02144813D01449042A0FD0C8
:10091000082A0ED10F4C241F2268236802F03F02E0
:100920005B0207D52068C0F38810A0FB010106E038
:10093000084610BD2168C1F38811A1FB0001002306
:10094000FFF750FC2168C1F30141491C4900B0FB8D
:10095000F1F010BD083802400024F40040787D0119
:100960002DE9F84F050076D02878DFF8F8B2BE4CB4
:10097000C00749D0DBF800105846C1F381010129B6
:1009800008D00068C0F3810002280AD1201D006849
:10099000400206D52068800336D568680028E2D07A
:1009A00032E06868B0F5803F10D0B0F5A02F206825
:1009B00010D020F480302060206820F48020206057
:1009C0006868A0B1FFF734FE06460CE0206840F4EA
:1009D0008030F4E740F480202060F7E7FFF728FE3E
:1009E000801B642873D820688003F7D50CE0FFF7DC
:1009F0001FFE064605E000BFFFF71AFE801B6428B5
:100A0000F0D820688003F7D42878DFF86082800768
:100A10004FF000093ED5DBF80010584611F00C0FDE
:100A200009D00068C0F3810002280BD18D48001F57
:100A30000068400206D42068800715D5E8680128C0
:100A400009D111E0E868B8B10120C8F80000FFF74B
:100A5000EFFD064605E002E1FFF7EAFD801B0228F4
:100A6000C0D820688007F7D52068296920F0F800F1
:100A700040EAC10020600DE0C8F80090FFF7D8FD03
:100A8000064604E0FFF7D4FD801B02281FD820682B
:100A90008007F7D42878000722D5724E7448696918
:100AA0006C3671B101210160FFF7C2FD074604E019
:100AB000FFF7BEFDC01B022809D830688007F7D5B4
:100AC0000EE0C0F80090FFF7B3FD074605E083E0B5
:100AD000FFF7AEFDC01B02287ED830688007F7D430
:100AE0002878400768D5DFF87CA100270AF1380A8A
:100AF000DAF80000C0000BD4DAF8001041F08051A1
:100B0000CAF80010DAF80000012700F080500090C9
:100B1000584E3068C00510D4306840F480703060A2
:100B2000FFF786FD009005E0FFF782FD0099401A6F
:100B3000022851D83068C005F6D54A4EA8686836F4
:100B400001280FD00528306810D020F00100306057
:100B5000306820F004003060A868B8B1FFF768FD85
:100B600000900FE0306840F00100F4E740F004002E
:100B70003060F7E7FFF75CFD0099411A41F28830D9
:100B8000814264D830688007F4D50EE0FFF750FD4D
:100B9000009007E0FFF74CFD0099411A41F28830C0
:100BA000814254D830688007F4D42FB1DAF80010AD
:100BB00021F08051CAF80010A869C0B3DBF800101A
:100BC000C1F3810102294AD00228484607D0C8F85B
:100BD0006000FFF72DFD00E039E005463AE04746AA
:100BE000C8F86000FFF724FD064604E0FFF720FD8B
:100BF000801B02282BD820688001F7D4D5E9070193
:100C00000843A96A1C4A490802EB01416A6A41EAA1
:100C10008211084395F82C1040EA01611148001F29
:100C2000016001203866FFF703FD054605E014E08A
:100C3000FFF7FEFC401B022809D820688001F7D589
:100C40000BE000BFFFF7F4FC401B022802D9032091
:100C5000BDE8F88F20688001F4D40020F8E7012077
:100C6000F6E7000008380240003802400000474222
:100C7000800E4742007000400000FFFFF0B5426E5A
:100C8000120E93090B70C2F383034B7002F0030240
:100C90008A70426E120CCA70B0F86420120A0A718F
:100CA00090F864204A71826E4FF6FF73120E03EAC9
:100CB0000212CA80826ECB88C2F3074243EA121343
:100CC000CB8002F00F020A72B0F86820C2F307224C
:100CD000D3094B72C2F380138B72C2F34013CB72F1
:100CE000C2F300130B7300264E73446C4FF400776D
:100CF00001236CB1012C43D0026840F2FF51916393
:100D0000816B41F08051816380F834300120F0BD67
:100D10009207120D0A6190F868200C6944EA820279
:100D20000A61C26E0C69120E44EA92140C61C2F39D
:100D3000C2040C7502F007024A75C26EC2F3074284
:100D400054098C75C2F38204CC759207520F0A764F
:100D5000B0F86C20C2F307240A7E42EAD4120A7665
:100D60000A69521C42650D7EAD1CAA4042650D7A8F
:100D700003FA05F585656D0A6A43C0E917271CE08B
:100D800090F868209206920A0A61C26E0C69120EEF
:100D900044EA02220A61C26E0C69C2F3074214439C
:100DA0000C61B0F86C20C2F307240A69521C4FEAA8
:100DB00082224265C0E916720766C4F3801201F808
:100DC000192F4FEA84624FEA52624A7010F86C2F72
:100DD0004C7844EAD2144C7002F07F028A70426868
:100DE0004FEA12624FEAD214CC70C2F341140C7174
:100DF000C2F382044C714FEA82724FEA12728A7116
:100E000042688C79C2F3074244EA92148C71C2F3AF
:100E10004014CC710E7202F001024A728288C2F351
:100E200007224FEAD2148C72C2F38014CC72C2F340
:100E300040140C73C2F300144C73C2F381048C731E
:100E400002F00302CA7300794FEA500008744B7431
:100E50004FF00000F0BD426C0A60826C4A60C26CC8
:100E60008A60026DCA60426D0A61826D4A61C26D1C
:100E70008A61006EC8610020704770B50446B0F802
:100E8000500000250104206800F0E9FD18B1A16BB5
:100E90000143A16304E00021206800F08CFC0546BA
:100EA000C5F3432070BD70B5040004D094F834003D
:100EB000002510B105E0012070BD2577204600F027
:100EC00037F8032084F83400204600F007F8A563C3
:100ED0002563012084F83400002070BDFEB5002594
:100EE000044676200095CDE901502B462A46294636
:100EF000206800F066FC0D4E46F8A05F206800F008
:100F000072FC012535600220FFF77EFA204600F0D2
:100F1000BEFF20B9204600F047FF002805D084F826
:100F20003450A16B0143A1630120FEBD0080254226
:100F3000F0B50068104987B088421BD10F4801689E
:100F400041F4006101600068022400F40060059033
:100F50004FF48850012503260C278DE8F1006946DF
:100F60000748FFF771FA04208DE8F100694605484B
:100F7000FFF76AFA07B0F0BD002C01404438024088
:100F800000080240000C02402DE9F04F87B09A465D
:100F900017460E460446DDF840B0FFF749FB0090C7
:100FA0003EB194F83400012807D0A06B40F0005007
:100FB0000FE0A06B40F000600BE04FF00008C4F8B9
:100FC0003880E06D07EB0A01814204D9A06B40F044
:100FD0000070A0637DE0032084F834002068C0F82E
:100FE0002C80606C012800D07F024FF400712068D3
:100FF00000F048FC40F2FF59012530B12268C2F8E8
:101000003890A16B0143A16361E04FF0FF30019084
:101010004FEA4A200290902003900220CDE9040874
:10102000069501A9206800F0B0FBBAF1010F06D9BE
:10103000022020633946206800F09AFC04E0256312
:101040003946206800F0ADFC0028D7D140F22A389C
:101050002068416B11EA080F22D1406B000409D5CA
:101060000027206800F0C3FB46F827007F1C082FEC
:10107000F7D32036BBF1000F05D0FFF7D9FA00995E
:10108000411A5945E4D32168C1F83890A06B40F06B
:101090000040A06384F83450032007B0BDE8F08F0F
:1010A000416BC90509D5BAF1010F06D9616C032955
:1010B00003D000F005FD0028A0D12068416B09078E
:1010C00009D5C0F83890A06B40F0080028E084F8FB
:1010D00034500120E1E7416B890705D5C0F838900D
:1010E000A06B40F002001BE0416B89061AD5C0F8E6
:1010F0003890A06B40F0200012E000BF00F077FBBA
:1011000001C6BBF1000F05D0FFF792FA0099411A12
:10111000594507D32168C1F83890A06B40F00040D2
:10112000A063D4E72068416B8902E7D42168C1F845
:10113000389084F834500020AFE700002DE9F04FDC
:1011400087B09A4616460D460446FFF771FA069098
:101150003DB194F83400012807D0A06B40F0005056
:101160000DE0A06B40F0006009E00020A063E26D9C
:1011700006EB0A01914204D9A06B40F00070A06315
:1011800090E0032184F8341021688146C862606CC5
:10119000012800D076024FF40071206800F072FB45
:1011A00040F2FF58012730B12268C2F83880A16BA5
:1011B0000143A16317E0BAF1010F06D92020206393
:1011C0003146206800F096FC05E01020206331468F
:1011D000206800F0A8FC060008D02168C1F838801B
:1011E000A06B3043A06384F834705BE04FF0FF30B5
:1011F00000904FEA4A200190902002904846CDE9A5
:101200000407CDF80C90B9466946206800F0BDFA95
:1012100040F21A3B22E0406B40040AD55FF0000721
:1012200005EB8701206800F0F5FA7F1C082FF7D343
:101230002035109830B1FFF7FBF90699411A109844
:1012400081420BD32168C1F83880A06B3043A06382
:1012500084F83490032007B0BDE8F08F2068416B1C
:1012600011EA0B0FD7D0416BC9050FD5BAF1010FA9
:101270000CD9616C032909D000F022FC30B122683E
:10128000C2F83880A16B0143A16309E02068416B7B
:10129000090709D5C0F83880A06B40F0080014E0B9
:1012A00084F834900120D6E7416B890705D5C0F852
:1012B0003880A06B40F0020007E0416BC0F8388036
:1012C000C90604D5A06B40F01000A063E8E784F8DD
:1012D00034900020BFE770B5040005D00025A5625A
:1012E00094F8510010B106E0012070BD84F8505010
:1012F000204600F031F8022084F85100206801688F
:1013000021F040010160D4E901010843D4E903124E
:101310001143084361690843218B01F400710843BC
:10132000E1690843216A0843A16A0843216808600B
:10133000A069042101EA1040616A084321684860FD
:101340002068C16921F40061C1616565012084F8EC
:101350005100002070BD000070B50068134986B0D0
:10136000884221D112480024016841F48051016073
:10137000006801AA00F48050059010200090012020
:10138000032582E831000B4E69463046FFF75CF8D2
:10139000E020009001A9022081E83100052004909E
:1013A00069463046FFF750F806B070BD0030014086
:1013B00044380240000002402DE9F84F044690F8FE
:1013C000500000260A9F9A4693460D464FF00108AA
:1013D00001280ED0012084F85000FFF729F981463A
:1013E00094F85100616801280CD0B1F5827F07D1D3
:1013F00002E00220BDE8F88FA16809B9042801D0F5
:101400000226BDE055B1BBF1000F07D0BAF1000FC5
:1014100004D094F85100012802D004E00126AFE086
:10142000052084F8510000206065C4F838B0A4F8A5
:101430003EA0A4F83CA02563A4F836A0A4F834A0EC
:101440002064606420680168490603D4016841F0A3
:1014500040010160E068B0F5006F606804D0E8B357
:10146000E08E01283BD06AE010B1E08E01282ED139
:10147000216835F8020BC860E08E401EE08626E049
:10148000B8F1000F0DD0E08E58B12068816889074F
:1014900007D535F8021BC160E08E401EE0864FF094
:1014A0000008E08F58B120688168C90707D0C0687C
:1014B0002BF8020BE08F401EE0874FF00108781CEC
:1014C00005D0FFF7B5F8A0EB0900B84246D2E08E90
:1014D0000028D5D1E08F0028D2D136E0FFE721687F
:1014E00015F8010B0873E08E401EE08627E000BF70
:1014F000B8F1000F0DD0E08E58B1206881688907DF
:1015000007D515F8011B0173E08E401EE0864FF0F1
:101510000008E08F58B120688168C90707D0C0680B
:101520000BF8010BE08F401EE0874FF00108781C9C
:1015300005D0FFF77DF8A0EB0900B8420ED2E08E8F
:101540000028D5D1E08F0028D2D13B4601220221CC
:101550002046CDF8009000F05CFD08B103260FE0B6
:101560004A463946204600F044FD18B101262020A5
:10157000606505E0A06818B92068C16880680090BF
:10158000012084F85100002084F85000304631E7F3
:101590004FF0E0210428086903D020F0040008611E
:1015A000704740F00400FAE7704710B5401EB0F1F4
:1015B000807F01D3012010BD4FF0E02460610F2136
:1015C000601700F0D1F80020A06107202061002002
:1015D00010BD10B5FFF7E8FF10BDFEE710B50449D8
:1015E0000448FEF7EDFE0249491E087010BD0000D8
:1015F0000600002060430008F0B5374887B000249B
:10160000016841F001010160016801F001010591EB
:10161000016841F002010160016801F002010591D9
:10162000016841F004010160016801F004010591C5
:10163000016841F008010160016801F008010591AD
:10164000016841F040010160016801F0400105912D
:10165000016841F0800101600068204E00F08000C8
:101660004FF4C0450590002229463046FEF7DBFFC7
:101670001B4F00221B213846FEF7D5FFB015009006
:101680001848CDE9010469461748FEF7DDFE0095CC
:101690000125CDE90154694630460394FEF7D4FE96
:1016A0004FF4FF5002268DE8510069463846FEF798
:1016B000CBFE1B2003948DE8610069463846FEF797
:1016C000C3FE012200211720FFF748F81720FFF77B
:1016D00039F807B0F0BD0000303802400018024071
:1016E000000C0240000011100000024006480549AD
:1016F0000160002141608160C1600161416103219D
:1017000081617047002C014078100020104810B50E
:101710000E4901604FF48271416000218160C16017
:101720004FF400720161C0E90512C16101624162BA
:1017300081620A21C162FFF7CEFD002805D0BDE815
:1017400010404F2103A000F032BD10BD0030014019
:10175000FC1000202E2E2F5372632F7370692E639E
:1017600000000000FEE770470907090E002806DAAE
:1017700000F00F0000F1E02080F8141D704700F128
:10178000E02080F80014704770470A6842624A6897
:101790008262D1E902231A43D1E904310B43C16AC1
:1017A0001A4321F0F7011143C1620020704700681D
:1017B00000F00300704708B508441430009000683A
:1017C00008BD70B50DF1100C11439CE87000234367
:1017D000194329434268314347F6FF639A430A435A
:1017E0004260002070BD0321016000207047D0F8E6
:1017F000800070470A688260D1E901231A43D1E969
:1018000003310B43C1681A436FF30B011143C160ED
:10181000002070470968C0F880100020704710B59C
:1018200086B004463720CDE9001040200290002009
:1018300003904FF48060049069462046FFF7DAFF7A
:1018400041F288323721204600F086F906B010BDFB
:1018500010B504460A4886B001432920CDE900109E
:1018600040200290002003904FF48060049069466D
:101870002046FFF7BFFF204600F024FA06B010BD57
:101880000000108010B586B004461020CDE900108D
:1018900040200290002003904FF48060049069463D
:1018A0002046FFF7A7FF41F288321021204600F0C2
:1018B00053F906B010BD000030B585B000240546D0
:1018C000009401944FF480600294CDE9034069468E
:1018D0002846FFF78FFF0B484FF4FA510068B0FB22
:1018E000F1F041F288314843401E03D24FF00040EE
:1018F00005B030BD696B0906F6D540F2FF50A8630C
:101900002046F5E71800002070B585B004464FF476
:10191000D570009008204026CDE901060025C001C1
:10192000CDE9035069462046FFF764FF0F484FF4A6
:10193000FA510068B0FBF1F041F288314843401E93
:1019400002D24FF000450DE0616B11F0450FF6D06B
:10195000606B400702D5A663042503E0606B400678
:1019600000D5A66305B0284670BD00001800002011
:1019700010B586B004461220CDE900104020029038
:10198000002003904FF48060049069462046FFF7E2
:1019900031FF41F288321221204600F0DDF806B016
:1019A00010BD10B586B004461120CDE900104020CE
:1019B0000290002003904FF4806004906946204616
:1019C000FFF718FF41F288321121204600F0C4F8D9
:1019D00006B010BD10B586B004460720CDE9002042
:1019E00040200290002003904FF4806004906946EC
:1019F0002046FFF7FFFE41F288320721204600F023
:101A0000ABF806B010BD10B586B004460021022028
:101A1000CDE90010C020CDE902014FF480600490B0
:101A200069462046FFF7E6FE204600F023F906B09F
:101A300010BD10B586B004460920CDE90010C020C5
:101A40000290002003904FF4806004906946204685
:101A5000FFF7D0FE204600F00DF906B010BD10B51E
:101A600086B004460D20CDE90010402002900020F1
:101A700003904FF48060049069462046FFF7BAFE59
:101A800041F288320D21204600F066F806B010BD04
:101A900030B585B00C46054600210320CDE9001085
:101AA0004020CDE902010001049069462846FFF775
:101AB000A1FE22460321284600F024F905B030BDDE
:101AC00010B586B0044600210C20CDE9001040205E
:101AD000CDE902010001049069462046FFF78AFE25
:101AE000034A0C21204600F037F806B010BD000074
:101AF00000E1F50510B586B004461920CDE90010C7
:101B000040200290002003904FF4806004906946CA
:101B10002046FFF76FFE41F288321921204600F07F
:101B20001BF806B010BD10B586B004461820CDE9EC
:101B3000001040200290002003904FF48060049039
:101B400069462046FFF756FE41F2883218212046AA
:101B500000F002F806B010BD444B10B51B684FF4FE
:101B6000FA54B3FBF4F353435B1E02D24FF0004030
:101B700010BD426B12F0450FF6D0426B520703D5F1
:101B800004218163084610BD426BD20702D00121B7
:101B9000816303E00269D2B28A4201D0012010BD04
:101BA00040F2FF5181630021FFF705FE30490842F2
:101BB00001D1002010BD002802DA4FF0007010BDE6
:101BC000410001D5402010BD810001D5802010BD0D
:101BD000C10002D54FF4807010BD010102D54FF451
:101BE000007010BD410102D54FF4806010BDC101ED
:101BF00002D54FF4006010BD010202D54FF48050B1
:101C000010BD410202D54FF4005010BD810202D533
:101C10004FF4804010BDC10202D54FF4004010BD0A
:101C2000410302D54FF4003010BD810302D54FF4BB
:101C3000802010BDC10302D54FF4002010BD010467
:101C400002D54FF4801010BD410402D54FF40010AE
:101C500010BD810402D54FF4800010BD000702D5ED
:101C60004FF4000010BD4FF4803010BD180000206C
:101C700008E0FFFD12494FF4FA520968B1FBF2F196
:101C800041F288325143491E02D24FF00040704762
:101C9000426B12F0450FF6D0416B490703D5042182
:101CA000816308467047416BC90703D001218163F6
:101CB0000846704740F2FF518163002070470000E2
:101CC000180000200E494FF4FA520968B1FBF2F1F6
:101CD00041F288325143491E02D24FF00040704712
:101CE000426B12F0450FF6D0416B490703D5042132
:101CF00081630846704740F2FF51816300207047BE
:101D0000180000201F4B10B51B684FF4FA54B3FBAA
:101D1000F4F341F2883463435B1E02D24FF000407B
:101D200010BD446B14F0450FF6D0436B5B0703D531
:101D300004218163084610BD436BDB0702D00121FB
:101D4000816303E00369DBB28B4201D0012010BD47
:101D500040F2FF5181630021FFF72DFD10F4604F29
:101D600004D0410406D54FF4005010BD000C108083
:101D7000002010BD000402D54FF4805010BD4FF478
:101D8000803010BD1800002010B5064C01202070D6
:101D9000FEF7C4FA18B9207820F0010020702078EE
:101DA00010BD00000400002010B590B004460120D2
:101DB000ADF838002068FFF7FAFC002864D0606CAA
:101DC000032842D02068FFF71EFE00285AD10021C8
:101DD0002068FFF7F0FC606704212068FFF7EBFC48
:101DE000A06708212068FFF7E6FCE0670C21206867
:101DF000FFF7E1FCC4F88000606C032825D00EA931
:101E00002068FFF745FE00283CD1606C03281CD0F9
:101E1000BDF83800206501042068FFF70AFE00289D
:101E200030D100212068FFF7C6FC606604212068DD
:101E3000FFF7C1FCA06608212068FFF7BCFCE06644
:101E40000C212068FFF7B7FC206704212068FFF70A
:101E5000B2FC000DE06403A92046FEF70FFFB4F8C2
:101E60005000002302042068FFF7B4FD002809D1C8
:101E700004F1100007C88DE8070094E80F00FFF791
:101E8000A0FC002010B010BD4FF08060FAE72DE9F3
:101E9000F8430025044600950068FFF70DFD002873
:101EA0001AD12068FFF730FD4FF080784FF6FF76AB
:101EB000D8B14FF08057A5640098411C0091B04202
:101EC0001AD000212068FFF7AAFC20B90021206861
:101ED000FFF7BEFC10B13846BDE8F883002120684A
:101EE000FFF769FCC00FE7D01FE00127A764009847
:101EF000411C0091B04201D14046EDE7002120682D
:101F0000FFF78DFC0028E7D14FF080412068FFF7F4
:101F10009FFC0028E0D100212068FFF74CFCC10F96
:101F2000E5D0400001D5676400E065640020D3E798
:101F300070B5064C054601202070FEF7FBF918B974
:101F40002846FFF721FF2070207870BD0400002094
:101F500010B5124888B014460078C00702D003209C
:101F600008B010BDC1B1012905D0022908D003294C
:101F70000CD00420F4E76846FEF7CAF906980AE098
:101F80006846FEF7C5F90798208005E06846FEF729
:101F9000BFF90798400A20600020E1E70400002014
:101FA00070B51D46164608460124A31E2A46314632
:101FB000FEF7D2F928B900BFFEF7B0F90028FBD12F
:101FC0000024204670BDFFF7DFBE000070B51D463F
:101FD000164608460124A31E2A463146FEF7CCF9D0
:101FE00028B900BFFEF79AF90028FBD1002420464B
:101FF00070BD38B50B46009204460022802100F0E7
:1020000008F8002804D0606D40F0200060650320CF
:1020100038BD2DE9F0411D4617460E460446DDF851
:10202000188035E0681C33D02DB1FEF701FBA0EB22
:102030000800A8422CD32068416821F0E0014160EB
:102040006068B0F5827F0BD1A068B0F5004F02D078
:10205000B0F5806F04D12068016821F04001016073
:10206000A06AB0F5005F0AD1206801684DF6FF72E2
:10207000114001602068016841F4005101600120B5
:1020800084F85100002084F850000320BDE8F0815E
:102090002068806836EA000004D00020B842C1D130
:1020A0000020F3E70120F9E7704710B5FEF7C6FA04
:1020B000BDE81040FFF78DBA30B5254893B0002435
:1020C000016841F080510160006800F0805011907B
:1020D0002048016821F4404141F4804101600068DA
:1020E000022500F44040119001200390102004903C
:1020F000009506950820CDE907404820CDE909055F
:1021000003200B906846FEF72BFC00B1FEE70F2082
:10211000CDE90C054FF48050CDE90E4002210CA80A
:102120001094FEF74DFB00B1FEE7FEF7E1FB4FF424
:102130007A71B0FBF1F0FFF738FA0420FFF728FAC4
:1021400000221146501EFEF709FB13B030BD0000FF
:1021500040380240007000401048016841F47001AE
:1021600001600F48016841F0010101600C4A002143
:102170000832116002680B4B1A400260031D0A4AC4
:102180001A60026822F48022026005480C30016067
:1021900002495806803908607047000088ED00E069
:1021A00000380240FFFFF6FE10300024FEE7FEE795
:1021B0000FB41CB50246002007AC00290BD0491E05
:1021C000CDE90021054B6A462146069800F018F833
:1021D000009A002111701CBC5DF814FB4325000817
:1021E00002E008C8121F08C1002AFAD170477047E0
:1021F000002001E001C1121F002AFBD1704700003E
:102200002DE9FF4F8BB088460546002606E02528BD
:102210000BD0DDE90D1290476D1C761C2878002844
:10222000F5D10FB03046BDE8F08F0024A146A2469C
:102230000122AE4900E0044315F8013F203B02FAB9
:1022400003F00842F7D128782A2810D06FF02F0227
:102250002878A0F13001092915D809EB890102EB92
:10226000410144F0020400EB01096D1CF0E758F84D
:10227000041B5FEA010903D544F40054C9F10009C5
:1022800044F002046D1C28782E2817D115F8010F90
:1022900044F004042A280ED06FF02F022878A0F111
:1022A000300109290AD80AEB8A0102EB410100EB4F
:1022B000010A6D1CF2E758F804AB6D1C28786C28F5
:1022C0000FD006DC4C2817D068280DD06A2814D10E
:1022D00004E0742810D07A280FD10DE044F40014E3
:1022E0000AE044F4801401E044F440146978814227
:1022F00002D104F580146D1C6D1C2878692865D006
:1023000006DC00288DD0632827D0642806D15DE044
:102310006E2808D073282AD0752877D0DDE90D12F1
:102320009047761CE0E0C4F30250022809D003284D
:102330000DD0D8F8001004280DD00E6008F1040864
:10234000D2E0D8F80010F217C1E90062F6E7D8F839
:1023500000100E80F2E70E70F0E718F8041B8DF8FD
:10236000001000208DF80100EB46012003E058F832
:1023700004BB4FF0FF3061074FF0000701D40AE0C3
:102380007F1C57450DDA8742FADB1BF8071000293E
:10239000F6D106E07F1C8742FCDB1BF80710002902
:1023A000F8D1DDE90D23A9EB07008146214600F0B5
:1023B000B1F83044C61904E0DDE90D121BF8010B39
:1023C00090477F1EF8D22146484688E058F8040B13
:1023D000C4F302514FF00A0B032900D100B20429C3
:1023E00000D140B2002802DA40422D2102E021054E
:1023F00005D52B218DF82410012104E006E0E1072A
:1024000010D02021F6E708AF089113E058F8040B2C
:10241000C4F302514FF00A0B032900D180B2042902
:1024200000D1C0B20021EEE75946FDF72AFF303156
:1024300007F8011D0028F7D1ADEB070000F1200BD4
:10244000600702D524F4803401E04FF0010ADA4538
:1024500002DDAAEB0B0000E00020824600EB0B013E
:1024600008980144A9EB01000A90E00306D4DDE9D5
:102470000D2321460A9800F04DF806444FF000095C
:1024800008E009A911F80900DDE90D12904709F1EA
:102490000109761C08998945F3DBE0030CD5DDE9D9
:1024A0000D2321460A9800F035F8064404E0DDE9E2
:1024B0000D1230209047761CBAF10001AAF1010AF2
:1024C000F5DC05E0DDE90D1217F8010B9047761CED
:1024D000BBF10001ABF1010BF4DC0A982146DDE908
:1024E0000D2300F005F806446D1C97E6092801004D
:1024F0002DE9F041044600251E461746880404D401
:1025000005E039462020B0476D1C641EF9D52846E9
:10251000BDE8F0812DE9F041044600251E469046B5
:10252000C80301D5302700E02027880404D505E042
:1025300041463846B0476D1C641EF9D52846BDE8B3
:10254000F0814A68002A06D00A68531C0B6010709C
:102550004868401E4860704710B50121122001F004
:10256000A5FE00204FF4C861401C80B28842FBD316
:102570000021192001F09AFE2C21062001F096FE80
:102580000121072001F092FE0121082001F08EFEBA
:102590000021092001F08AFE31210A2001F086FE87
:1025A00008210D2001F082FE00210B2001F07EFEAB
:1025B00000210E2001F07AFE0021112001F076FEAC
:1025C0000421122001F072FE0421132001F06EFE9E
:1025D0003021142001F06AFE4021152001F066FE32
:1025E0008421162001F062FE0021172001F05EFE1A
:1025F0000021182001F05AFE00211A2001F056FE99
:102600006821BDE81040102001F050BE10B5074908
:102610000446BE20087001F2592240F2592001F010
:102620005FFA204600F0AAFF642010BD8011002050
:1026300010B504460020E070401E6063204601F0A3
:1026400040FC08B1042010BD04F2362001F0C4FAA9
:10265000A0F52A41553901D0032010BD94F8380067
:10266000E92805D0EB2814D194F83A00902810D12D
:1026700004F16E0001F0A5FA0749B1EB002F06D076
:1026800004F18A0001F09DFA0449884201D100203A
:1026900010BD022010BD0000004641544641543395
:1026A00000E0401C02780AB18A42FAD1D0B27047E9
:1026B000F0B50022144D134605EB021426685EB1F6
:1026C0000768BE4209D166688768BE4205D1A46822
:1026D0004669B44204D000E00123521C022AEBD325
:1026E000022A01D069B904E04BB9022907D01220AF
:1026F000F0BD05EB02108089B0F5807F01D000208D
:10270000F0BD1020F0BD00005411002030B50021B4
:10271000054B0C4603EB01121568854200D114608D
:10272000491C0229F6D330BD541100200268C06A4A
:10273000938952895343B1FBF3F1001D04C81AB1C8
:10274000914203D3891AF8E70020704700680844D3
:102750007047C269891E921E8A4201D800207047C4
:10276000026B408901FB0020704700002DE9F05FFB
:1027700082460C4601F11A0001F02EFA78BB20784F
:10278000012700F03F00401E00EB8001DFF8589069
:1027900001EBC00500264FF6FF7B00BF19F80600CD
:1027A000204401F019FA80466FB1FF2D17D200F0D6
:1027B000A5FE07463AF815006D1C00F09FFE874203
:1027C0000DD1474601E0D84509D1761C0D2EE5D341
:1027D0002078400606D52FB13AF8150010B1002038
:1027E000BDE8F09F0120FBE7044400082DE9F0411B
:1027F00005680F00804606D001F0DEF8022809D2F5
:102800000120BDE8F0816E6916B1E869B04207D8D1
:10281000012605E0411CF4D0E9698142F1D83E4629
:102820003446E869641CA04202D80224022E0AD36E
:102830002146404601F0C0F838B10128E1D0411CE2
:10284000DFD0B442EDD10020DBE74FF0FF36324657
:102850002146284601F04EFB30B957B12246394691
:10286000284601F047FB20B101280FD00124204663
:10287000C7E76C61D5E90601891E884201D8401E70
:10288000A861287940F001002871F0E73446EEE7AE
:102890002DE9F84F824600680E68002407698846D3
:1028A0002546705D6D1C20281AD32F2813D05C2874
:1028B00011D0FF2C39D2012100F000FE5FEA00099F
:1028C00033D0B9F1800F12D201466DA0FFF7E8FEB8
:1028D00058BB0CE06D1C715D2F29FBD05C29F9D031
:1028E0007219C8F80020202805D204250FE027F827
:1028F0001490641CD5E7002509E000BF07EB4400F5
:1029000030F8020C202801D02E2802D1641E002CA1
:10291000F4D1002027F814003CB10B2220210AF149
:10292000240001F0C7FA002603E00620BDE8F88F76
:10293000761C37F816002028FAD02E28F8D01EB1C1
:1029400045F0030500E0641E2CB107EB440030F8AD
:10295000020C2E28F7D14FF000094FF0080BCDF8EC
:10296000009000BF37F8160006F101065FEA000884
:1029700024D0B8F1200F04D0B8F12E0F04D1A64214
:1029800002D045F00305EDE70098584501D2A64274
:1029900019D1BBF10B0F0FD0A64201D045F00305B2
:1029A0000CD84FF0080000904FEA896026464FF09F
:1029B0000B0B4FEA1069D5E745F003059AF82400A0
:1029C000E52838D03AE04046B8F1800F10D3002116
:1029D00000F074FD5FEA000805D02C4901EB080007
:1029E00010F8800C804645F00205B8F1000F04D0C5
:1029F000014627A0FFF754FE20B14FF05F0845F0D5
:102A000003050FE0A8F14100192802D849F0020996
:102A100008E0A8F16100192804D8413049F0010903
:102A20001FFA80F8009A0AEB020181F824800098CE
:102A3000401C009096E705218AF82410BBF1080F8E
:102A400003D14FEA89604FEA1069C9F38100032876
:102A500003D06FEA0901890701D145F00205A907F2
:102A600009D409F00301012901D145F0100501281D
:102A700001D145F008058AF82F50002056E70000E4
:102A8000222A3A3C3E3F7C7F00000000844300083D
:102A90002B2C3B3D5B5D0000401E022812D20A49F0
:102AA00001EB00118889B0F5807F05D008B1401E88
:102AB00080B2888110B103E00020FAE700200860AE
:102AC0000020704702207047541100202DE9F04784
:102AD00004460021D0F8009000F0D4F900285BD122
:102AE000FF25471EA84627634846E16901F0E9F93A
:102AF000060050D1216A087850B1CA7AE52802F060
:102B00003F02A2713FD0130704D50F2A3BD105E045
:102B1000042640E00F2A01D0E5B120E094F82F20F0
:102B2000520632D4420606D591F80D8000F0BF005F
:102B3000626905462263A84209D14A7B424506D113
:102B4000D9F81000FFF712FE08B16D1E00E0FF2556
:102B5000EDB21AE0084601F0B9FA40451BD094F8EE
:102B60002F00C0070FD1D4F8201004F124000B224D
:102B700011F8013B10F8015B5B1B521E02D0002BC9
:102B8000F6D000E03BB1FF2527630021204600F08E
:102B900005F80600A8D03046BDE8F0872DE9F047DB
:102BA000054647690468C0698946203710B1B7F502
:102BB000001F02D30420BDE8F087A189B7FBF1F222
:102BC00001FB127100295FD1401CE861A9694FF037
:102BD000000819B3A0896289B7FBF0F0521E1042B9
:102BE00052D1284600F0E8FE064601281FD9701C85
:102BF00036D0E069B04241D8B9F1000F12D0284672
:102C0000A969FFF7F3FD06000FD0012E0FD0701C4D
:102C100026D0204601F0ACFA10BB0AE02089B0EBC8
:102C2000571F31D8C5F81C80C4E70720C3E702202E
:102C3000C1E7A289002104F1380001F03BF94FF00F
:102C4000000831462046FFF784FD4FF0010960631C
:102C50000DE000BF84F80390204601F089FA08B126
:102C60000120A8E7606B08F10108401C60636189DE
:102C70004145EFD8616BA1EB080060633146204607
:102C8000AE61FFF766FDE8616F61A089B7FBF0F107
:102C900000FB117020443830286200208BE70000D0
:102CA0002DE9F04F0446D0F8009090F82F0089B03D
:102CB00010F0A00F03D0062009B0BDE8F08F00256A
:102CC000D9F8100000E06D1C30F815100029FAD179
:102CD00004F124010C226846039101F0E1F89DF80B
:102CE0000B00C00719D0402084F82F00012633467E
:102CF0006946D9F81020039800F01EFE2046FFF721
:102D0000E5FE10B9761C642EF1D3642E0FD0042892
:102D1000D2D19DF80B0084F82F009DF80B0080079E
:102D200007D50D200C35B5FBF0F56D1C02E0072032
:102D3000C2E7012500212046276800F0A3F888B9E2
:102D400000263846E16901F0BCF858B9206A0078DD
:102D5000E5280AD048B1002601212046FFF71EFFD2
:102D60000028EED0042812D012E0761C2846AE428D
:102D7000F2D1451E059567D06169684201EB4011AB
:102D8000204600F07FF85FEA000803D076E00720D5
:102D9000804673E0039801F099F94FF6FF7B0790A6
:102DA0004846E16901F08DF85FEA000866D1D9F87C
:102DB000100006900598D4F82080C0B204900799BE
:102DC00088F80D100F2188F80B10002188F80C10DE
:102DD00008F11A0001F076F90498DFF8A4A0401E6B
:102DE00000EB800101EBC006002701E05D4503D048
:102DF000069830F81650761C1AF8071001EB0800F8
:102E0000294601F05FF905B95D467F1C0D2FEDD312
:102E10005D4505D0069830F8160008B1049803E027
:102E2000049840F04000049088F80000012189F8DF
:102E3000031000212046FFF7B1FE5FEA00081DD114
:102E40000598401E0590ABD14846E16901F039F87C
:102E50005FEA000812D120220021206A01F02AF83E
:102E60000B22206A039901F01BF894F82F00216AC5
:102E700000F018000873012089F8030040461BE7A2
:102E8000044400082DE9F04104680F460646B1F5F8
:102E9000001F3CD2F8063AD17761B56825B9207891
:102EA000032806D3E56A25B16089A18900FB01F8F2
:102EB00012E02089B0EB571F29D9E06A12E03046B2
:102EC00000F07AFD0546401C1FD0022D1FD3E0699B
:102ED000A8421CD9A7EB080747452946EFD2204650
:102EE000FFF737FCC6E9065088B1A189B7FBF1F1BD
:102EF0000844F061A089B7FBF0F100FB1170204499
:102F0000383030620020BDE8F0810120FBE702206C
:102F1000F9E70000084910B50B5C002253B9012203
:102F20000A540A1801EB8000127A406801681046C2
:102F300088470246104610BD7411002030B4054C7D
:102F4000231804EB80001B7A406804691846A446E5
:102F500030BC60477411002030B4054D2C1805EBCF
:102F60008000247A406885682046AC4630BC6047C3
:102F700074110020044A111802EB8000097A40689D
:102F800042680846104700007411002030B4054D17
:102F90002C1805EB8000247A4068C5682046AC46B2
:102FA00030BC60477411002038B5044600F066F963
:102FB00000280CD16946204601F003F9002806D10B
:102FC0002069FFF769FD002801D10021216038BD8B
:102FD0002DE9F74181B0904602980090684600F0D4
:102FE00061FD040003D50B2004B0BDE8F0810D4E57
:102FF000002756F824501DB12846FFF787FB2F7095
:103000000198002800D0077046F8240002D0B8F1DB
:10301000010F01D00020E7E7002201A902A800F07B
:10302000E1FAE1E7200000202DE9F74795B005001F
:103030000BD002F03F063246694616A800F0D2FADD
:1030400004004FF0000904D00AE1092018B0BDE8DF
:10305000F087009806904FF4007000F04BFA5FEA9A
:10306000000809D0009906A8C1F81080169900F050
:10307000FDFB040002D010E01120E7E79DF84700B7
:10308000000601D5062408E0700801D0012100E007
:10309000002106A8FFF70CFB044616F01C0F5FD0BA
:1030A0004FF0010AC4B1042C10D10020724902E093
:1030B000401C022804D201EB00121268002AF7D14A
:1030C000022807D006A8FFF7EBFD044646F00806E5
:1030D0006CB1A5E01224A3E09DF81E0010F0110FC2
:1030E00001D007249CE0700701D50824B5E0300723
:1030F00045D500F0D5FC07460E9839460E3000F055
:10310000D9FF0E983946163000F0D4FF0E992020D2
:10311000C8720E99009800F041FD074600220E99F2
:10312000009800F0B3FF0E9800211C3000F0C2FFA1
:10313000009981F803A007B3D1F834A000223946E2
:1031400006A800F069FF04006AD15146009800F01B
:10315000B8FE04000098A7F1010747610BD05FE0BB
:10316000F4BB9DF81E00C10601D5042458E0B10748
:1031700001D5C007B5D1300701D546F0400600980B
:10318000406B68620E98A862700801D0012100E0CF
:10319000002106A800F0C2FC286160B30E990098D7
:1031A00000F0FCFCA8600E981C3000F00AFDC5F889
:1031B0002C90E86000992960009905F130004FF4E7
:1031C0008052C988A9802E7585F81590C5F8209081
:1031D00000218246C5F8189000F06CFEB00600E0B1
:1031E0001EE045D5EE68E6B3AE610098A968478950
:1031F0008089474310E0022412E0284600F0DCFBFF
:103200000146012800D80224481C02D0F61B1CB13C
:1032100004E00124F61B01E0BE42EED8E96124B1CE
:10322000404600F069F9DCB91EE000988289B6FBDF
:10323000F2F302FB1362A2B1FFF78BFA010015D083
:10324000009801238289B6FBF2F20A442A62407890
:103250005146FFF781FE20B10124404600F04CF9B1
:1032600000E005E0C5F800902046EFE60224F4E710
:10327000404600F041F9F7E754110020F8B5044644
:10328000694600F09EFF00280ED1217D4A060BD52D
:1032900008060ED50098226A0123407804F1300117
:1032A000FFF774FE08B10120F8BD207D00F07F001B
:1032B000207500F0F5FB0646616A009800F001FEFB
:1032C0000028F1D1A56A2946E87A40F02000E8728A
:1032D000A268206800F0DAFE05F11C00E16800F049
:1032E000E9FE314605F1160000F0E4FE002105F18B
:1032F000120000F0E7FE00980121C17000F0F4FE1A
:10330000217D01F0BF012175F8BD2DE9F04F884600
:1033100089B00021196099461546044604A900F0B9
:1033200050FF002806D1607D002803D1207D800752
:1033300003D4072009B0BDE8F08FA0690127421926
:103340004FF0020A04F1300B824200D2C543ACE0D8
:103350000498A1698289B1FBF2F302FB1313002BDD
:1033600079D1B1FBF2F64089401E064018D129B14F
:10337000E06A38B12046FFF7D9F907E0A06838B90C
:10338000002100E0E1692046FFF730FA00287ED0F6
:1033900001282FD0411C58D0E061A16801B9A0607C
:1033A000207D00060BD50498226A012340785946F7
:1033B000FFF7ECFDC0BB207D00F07F002075E169C8
:1033C0000498FFF7C6F9A8B13044009004988189A9
:1033D000B5FBF1F1029141B3721841898A4201D9DA
:1033E000891B029140784146029B009AFFF7CEFD6F
:1033F000D0B903E084F815A002209BE7216A009869
:10340000081A029988420AD204998A8900FB02812B
:10341000584600F045FD207D00F07F00207504989F
:103420008689029846432FE00FE0FFE7226A009961
:103430008A420ED0E268A16991420AD24078012303
:103440005946009AFFF788FD18B16775012071E7AA
:1034500001E0009820620498A1698089B1FBF0F234
:1034600000FB1212861AAE4200D92E46B1FBF0F2D2
:1034700000FB1210204432464146303000F010FD6F
:10348000207D40F080002075B044A06900E00FE08E
:103490003044A061E168884200D80846E060D9F86D
:1034A00000008119AD1BC9F80010002D7FF450AF4A
:1034B000207D40F04000207500203BE7802804D3A9
:1034C0000B4A51B1FF2801D90020704702EB4000A0
:1034D000A0F58050B0F8000F704732F811308342E9
:1034E00003D0491C89B28029F7D38031C8B2704714
:1034F0002E44000800F09EBC00F0F6B930B5B0F5DF
:10350000805F01D21B4900E01B4931F8022B002AE1
:1035100015D0904213D331F8024B230AE5B252FA88
:1035200084F4844221D9092B09D2DFE803F005098C
:103530000E11131517191B00801A31F8100030BD39
:10354000811A01F00101401A00E0103880B230BD4C
:103550002038FBE73038F9E71A38F7E70830F5E7A5
:103560005038F3E7A0F5E350F0E7002BCDD101EBA5
:103570004501CAE72E45000820470008F0B5184E5F
:10358000002147F6FF734FF4167700BF06EB4102A8
:103590005478957892F804C004EB0525D47804EBB0
:1035A0000C2492F805C092790CEB02224FF47A6C4D
:1035B00015FB0CF595FBF3F520F8115014FB0CF4FA
:1035C00094FBF3F500EB4104658012FB0CF292FBD7
:1035D000F3F2C91C89B2A280B942D7D9F0BD00006C
:1035E000D91300202DE9FF41002790460E460F60B9
:1035F00000F058FA050003D50B2004B0BDE8F081B7
:10360000974850F825409CB13460207808F0FE06B9
:1036100020B16078FFF7AEFCC1070BD02770E8B28D
:10362000B8466070FFF776FCC10708D00320E4E7D6
:103630000C20E2E70EB1400704D40020DDE71EB104
:10364000400701D50A20D8E7607804F10C02022176
:10365000FFF774FCF0BBA089A0F50071B1F5606FB5
:103660003FD8411E08423CD1002631462046FEF795
:10367000DFFF022822D100254FEA0D0704EB0510D9
:1036800090F8FA1100F5FB7019B1083000F099FAC2
:1036900000E0002047F825006D1C042DEED3002526
:1036A00057F8256036B131462046FEF7C1FF0228A3
:1036B00001D203E003206D1C042DF1D3042810D0A7
:1036C000022878D204F1430000F086FAA1898842EA
:1036D00071D100E005E004F14E0000F07DFA10B178
:1036E00005E0012089E704F15C0000F06AFA20623D
:1036F00094F84850A570012D01D0022D5BD14543AF
:1037000094F845006081E8B3411E084253D104F1AA
:10371000490000F061FA2081A1894909B0FBF1F26A
:1037200001FB120070BB04F14B0000F055FA0700DA
:1037300004D104F1580000F044FA074604F14600B1
:1037400000F04AFA010036D0A08923894009B3FB72
:10375000F0F04A19024497422DD3B81A6789B0FB9A
:10376000F7F078B103274FF6F57C604500D80227C3
:1037700040F6F57C604500D801273244801C314476
:10378000226300E017E0E061C4E90961032F14D06F
:103790008BB12944E162022F20D000F0010100EB3F
:1037A000400001EB5000A189401E0844B0FBF1F03D
:1037B000216A884214D90D201FE704F1620000F04D
:1037C0000BFA0028F7D120890028F4D104F1640015
:1037D00000F0F7F9E062E0698000E4E74000E2E72A
:1037E0004FF0FF30A061606180202071032F2CD149
:1037F00004F1680000F0F0F9012826D1711C204680
:1038000000F05FFB08BB84F8048004F2362000F06F
:10381000E3F9A0F52A41553917D104F1380000F039
:10382000D0F91049884210D104F5077000F0C9F9A9
:103830000D49884209D104F5087000F0C2F9A06171
:1038400004F5097000F0BDF9606105482770001F9C
:103850000188491C0180E1802046FEF757FFECE615
:1038600020000020525261417272416173B50446DA
:103870000568019801E0401C019001782F29FAD0D9
:103880005C29F8D00021A16001980078202806D298
:10389000802084F82F002046FFF7F4FA7CBD01A9B0
:1038A0002046FEF7F5FF0028F8D12046FFF70EF975
:1038B00094F82F1028B10428F0D14907EED4052040
:1038C0007CBD4907FCD4A079C006F8D5A9896069F8
:1038D000B0FBF1F201FB120041192846383100F02B
:1038E0005DF9A060DBE7000010B5002821D0114B86
:1038F0000022001F196803E0814203D80A46496884
:103900000029F9D152B11368841A9C4204D100688D
:1039100018441060104602E0506000E0186039B1B1
:1039200002680B1A934203D10B681A44026049687B
:10393000416010BD240000207CB516461C4605469B
:103940000B2200F0ADFA052C11D91A4A0CE0002127
:10395000B61C2346044663F35F044008E30300D526
:103960005440491C1029F4D330880028EFD1072196
:103970004FEA0D0204F00F003030392800D9C01D85
:103980005054491E2409F5D17E205054002000E0F7
:10399000401C884202D22B5C202BF9D1082902D28C
:1039A000535C491C00E020232B54401C0828F5D30D
:1039B0007CBD0000211001002DE9F04104680D4696
:1039C00002290BD3E069A84208D920784FF0FF36CE
:1039D000012807D0022834D0032849D001263046D8
:1039E000BDE8F081A08905EB5507B7FBF0F0A16AAF
:1039F0000144204600F065FA0028F0D1A089B7FB09
:103A0000F0F100FB11717F1CB7FBF0F0214491F83D
:103A10003880A16A0144204600F053FA0028DED124
:103A2000A089B7FBF0F100FB1170204490F838102A
:103A300048EA0120E90701D00609D0E7C0F30B06E8
:103A4000CDE7A089A16A4008B5FBF0F0014420460B
:103A500000F037FA0028C2D1A1896800B0FBF1F26A
:103A600001FB12002044383000F0B6F80646B6E7F5
:103A7000A089A16A8008B5FBF0F00144204600F05F
:103A800020FA0028ABD1A189A800B0FBF1F201FB1C
:103A900012002044383000F094F820F070469EE781
:103AA0000020704710B504464FF0FF302268002A0E
:103AB00013D0114600E0491C0B78202B0ED33A2B73
:103AC000F9D112F8013B303B0A2B06D28A4204D1CD
:103AD000002B02D1491C1846216010BD002010BDEA
:103AE000F8B50C4D16460F46044600221021284614
:103AF000FCF799FD322000902346324639460648AD
:103B0000FDF75AFC0446012210212846FCF78BFDE4
:103B10002046F8BD00000240FC100020F0B502462F
:103B20001D4BD2F80050002003EB00142668AE4273
:103B300007D166689768BE4203D1A4685669B4424B
:103B400002D0401C0228EFD3022814D1002002E04A
:103B5000401C022804D203EB00142468002CF7D187
:103B600002280ED003EB0014256095686560526949
:103B7000A2600022A281002903EB0011898902D0F2
:103B800019B10020F0BD491C01E04FF4807103EB36
:103B90000012401C9181F0BD5411002070B5064602
:103BA0000D4601F11A0000F017F80446307803289A
:103BB00005D105F1140000F00FF844EA0044204656
:103BC00070BDC178827842EA01214278007842EAE9
:103BD000012140EA012070474178007840EA012045
:103BE000704700002DE9F05FADF5985D41F2942734
:103BF0006F443C2273A13846FCF725FBFCF726FDF9
:103C0000FEF75AFAFDF7F8FCFDF770FDFDF7E6FC4C
:103C1000FDF77CFDFEF7A0FC794C20212046FCF747
:103C2000F9FC012585434FF019021CD075A1794894
:103C3000FCF71BFB0122784901A8FFF7C9F94FF4F3
:103C4000FA7690B1012211462046FCF7ECFC304692
:103C5000FCF7DAFB002201212046FCF7E4FC3046A9
:103C6000FCF7D2FBEEE76DA1E1E701221146204609
:103C7000FCF7D9FC67490A2201F11C00FFF7D4F9CF
:103C800080B1012202212046FCF7CDFC3046FCF732
:103C9000BBFB002202212046FCF7C5FC3046FCF7A6
:103CA000B3FBEEE7012202212046FCF7BCFC594899
:103CB0006B46392239461C30FFF727FB009839281C
:103CC00010D0012208212046FCF7ADFC3046FCF75D
:103CD0009BFB002208212046FCF7A5FC3046FCF7A0
:103CE00093FBEEE7012208212046FCF79CFC4948A3
:103CF0001C30FFF759F941F2D02BEB44ABF5257A94
:103D00004B4EA1460CE0307850B154465046FEF779
:103D10007DFC75B30146204600F06CFA002030703F
:103D20004FF400714846FCF775FC0028EBD00122E7
:103D300039490020FFF74CF901A8FFF7D5FD002213
:103D400001214C464846FCF76EFC00220221204629
:103D5000FCF769FC002208212046FCF764FC0022E5
:103D600010212046FCF75FFC0DF5985D0020BDE8B2
:103D7000F09FFFE700273B463A4639460FE000BF79
:103D800001EB410C491C34F91C8004EB4C0C4744FA
:103D9000BCF90280BCF904C04344624489B2814248
:103DA000EED397FBF0F1ABF8001093FBF0F192FB30
:103DB000F0F0ABF80210ABF80400584600F082FABD
:103DC000ACE7000053616D706C65204E722E3B4174
:103DD0006363656C65726174696F6E20583B416303
:103DE00063656C65726174696F6E20593B416363F2
:103DF000656C65726174696F6E205A0A000000007C
:103E0000000C0240726F775F76616C7565732E638C
:103E1000737600002C000020060000206176657299
:103E20006167655F76616C7565732E6373760000FC
:103E300000000020F0B50B30154D20F007010024E4
:103E4000144A0FE003688B420BD38B4205D95E1AEC
:103E500043184768C3E9006700E04368136002C085
:103E600004E0021D10680028ECD12046002802D191
:103E7000286808B10020F0BD064A07481060074ACC
:103E8000121A22F00702C0E9002401202860D7E7B7
:103E900028000020240000203C1600203836002096
:103EA000002A05D011F8013B00F8013B521EF9D160
:103EB000704700005FFA81F100F8011B521EFBD130
:103EC000704770B50446406B0D460026A8420FD0DF
:103ED000204600F04DF906000AD1607801232A46F9
:103EE00004F13801FFF738F808B1751E0126656343
:103EF000304670BD2DE9F047022617460D460446B0
:103F000002297DD3E069A8427AD920784FF00109CF
:103F1000012804D0022840D003287AD154E0A18996
:103F200005EB5508B8FBF1F0A16A01442046FFF704
:103F3000C8FF06006DD1A189B8FBF1F201FB128028
:103F40002044383008F10108E90704D00178FAB2BA
:103F500062F31F1100E03946017084F80390A189D3
:103F6000B8FBF1F0A16A01442046FFF7AAFF060062
:103F70004FD1A189B8FBF1F201FB12802044383007
:103F8000E90702D0C7F3071105E00178C7F3032260
:103F900001F0F0011143017039E0A089A16A4008E5
:103FA000B5FBF0F001442046FFF78BFF060030D14F
:103FB000A1896800B0FBF1F201FB12002044B9B204
:103FC000383000F07FF822E0A089A16A8008B5FBB4
:103FD000F0F001442046FFF774FF060019D1A089D4
:103FE000AD00B5FBF0F100FB115020443830FFF775
:103FF000E8FD67F31B000146A089B5FBF0F200E085
:1040000007E000FB12502044383000F053F884F8E9
:1040100003903046BDE8F0872DE9F041056813466E
:104020000E46074602292DD3E869B0422AD93BB192
:104030004FF0FF3219462846FFF75CFF00281FD1DA
:1040400031463846FFF7B8FC040018D0012C19D0CF
:10405000601C19D0002231462846FFF74BFF00288C
:104060000ED1D5E90610821E914205D2491CA961E4
:10407000297941F0010129712646B042E0D800209B
:10408000BDE8F0810220FBE70120F9E770B50C469E
:104090000646154691B204F11A0000F013F8307884
:1040A000032806D1290C04F11400BDE8704000F08B
:1040B00009B870BD0170090A4170090A8170090AC6
:1040C000C17070470170090A4170704701460020B5
:1040D0000B22430803EBC01011F8013B521E184499
:1040E000C0B2F6D17047000070B5044600F040F849
:1040F000050036D1207803282CD12079012829D138
:1041000004F13800A28900210646FFF7D3FE4AF6E3
:10411000552104F23620FFF7D5FF13493046FFF74B
:10412000C9FF124904F50770FFF7C4FF04F50870D2
:10413000A169FFF7BFFF04F509706169FFF7BAFFD6
:10414000626A0123521C626360783146FEF71EFFEB
:1041500000202071002260781146FEF7EFFE00B1CA
:104160000125284670BD00005252614172724161C2
:104170002DE9F0410446C0780027F8B1656B04F1E1
:104180003801607801232A468846FEF7FFFE08B111
:10419000012713E00020E070A06A216A281A8842F3
:1041A0000CD2A67808E0206A0123054460782A46EC
:1041B0004146FEF7EBFE761E022EF4D23846BDE8ED
:1041C000F08170B50D4604000CD0206850B1017824
:1041D00041B1C188A288914204D14078FEF7CAFE5D
:1041E000C00703D000202860092070BD2068286027
:1041F000002070BDF0B58DB00F4606460020254961
:104200000390322201F11C00FEF70EFF98B1224C00
:104210004FF4FA75012210212046FCF704FA2846D3
:10422000FCF7F2F8002210212046FCF7FCF92846A2
:10423000FCF7EAF8EEE7002423E000BF04EB4400BB
:1042400006EB400136F91000B1F90420B1F9021073
:104250008DE80700234611A2202104A8FDF7A8FF3E
:10426000C5B2202D00D9FEE70A4803AB2A4604A9AF
:104270001C30FFF74AF80398854200D0FEE7641C23
:10428000A4B2BC42DAD303481C30FEF78DFE0DB059
:10429000F0BD00002C000020000C024025643B25EE
:1042A000643B25643B25640A00000000044A10704A
:1042B000517002F2592202490220FFF711BC00009E
:1042C0008011002030B58DB00446002020490390B5
:1042D000322201F11C00FEF7A7FE98B11D4C4FF4ED
:1042E000FA75012210212046FCF79DF92846FCF7BB
:1042F0008BF8002210212046FCF795F92846FCF7A0
:1043000083F8EEE7B4F90000B4F90420B4F9021020
:104310008DE807001048114A4388591C418020212C
:1043200004A8FDF745FFC4B2202C00D9FEE70848D9
:1043300003AB224604A91C30FEF7E7FF0398844232
:1043400000D0FEE702481C30FEF72EFE0DB030BD57
:104350002C000020000C0240000000209C420008BD
:10436000311F0008C71F0008A11F0008CD1F00084B
:10437000511F0008000000000000000001020304BB
:1043800006070809435545414141414345454549D3
:10439000494941414592924F4F4F5555594F554FBD
:1043A0009C4F9E9F41494F55A5A5A6A7A8A9AAAB7A
:1043B000ACADAEAFB0B1B2B3B4414141B8B9BABB24
:1043C000BCBDBEBFC0C1C2C3C4C54141C8C9CACBC0
:1043D000CCCDCECFD1D145454549494949D9DADB84
:1043E000DCDD49DF4FE14F4F4F4FE6E8E8555555CB
:1043F0005959EEEFF0F1F2F3F4F5F6F7F8F9FAFBAC
:10440000FCFDFEFF01030507090E10121416181C0F
:104410001E00010004001000400000010002000026
:104420000100020004000800100020000000C70086
:10443000FC00E900E200E400E000E500E700EA003B
:10444000EB00E800EF00EE00EC00C400C500C9007E
:10445000E600C600F400F600F200FB00F900FF00E1
:10446000D600DC00F800A300D800D7009201E100DC
:10447000ED00F300FA00F100D100AA00BA00BF007D
:10448000AE00AC00BD00BC00A100AB00BB0091259C
:104490009225932502252425C100C200C000A90051
:1044A0006325512557255D25A200A500102514255B
:1044B00034252C251C2500253C25E300C3005A2566
:1044C000542569256625602550256C25A400F0003B
:1044D000D000CA00CB00C8003101CD00CE00CF0013
:1044E00018250C2588258425A600CC008025D3001E
:1044F000DF00D400D200F500D500B500FE00DE00DC
:10450000DA00DB00D900FD00DD00AF00B400AD0033
:10451000B1001720BE00B600A700F700B800B00039
:10452000A800B700B900B300B200A025A000610048
:104530001A03E0001703F8000703FF0001007801E9
:104540000001300132010601390110014A012E013A
:104550007901060180014D0043028101820182013F
:104560008401840186018701870189018A018B0109
:104570008B018D018E018F019001910191019301B9
:104580009401F60196019701980198013D029B0163
:104590009C019D0120029F01A001A001A201A20196
:1045A000A401A401A601A701A701A901AA01AB01C9
:1045B000AC01AC01AE01AF01AF01B101B201B30179
:1045C000B301B501B501B701B801B801BA01BB012A
:1045D000BC01BC01BE01F701C001C101C201C301A0
:1045E000C401C501C401C701C801C701CA01CB018B
:1045F000CA01CD011001DD0101008E01DE011201B1
:10460000F3010300F101F401F401F8012801220291
:1046100012013A020900652C3B023B023D02662C66
:104620003F0240024102410246020A015302400099
:1046300081018601550289018A0158028F015A02BF
:1046400090015C025D025E025F0293016102620200
:1046500094016402650266026702970196016A028C
:10466000622C6C026D026E029C01700271029D014F
:10467000730274029F0176027702780279027A024D
:104680007B027C02642C7E027F02A60181028202F0
:10469000A9018402850286028702AE014402B101AB
:1046A000B20145028D028E028F0290029102B70183
:1046B0007B030300FD03FE03FF03AC03040086033A
:1046C000880389038A03B1031103C2030200A30311
:1046D000A303C4030803CC0303008C038E038F03DE
:1046E000D8031801F2030A00F903F303F403F503F6
:1046F000F603F703F703F903FA03FA033004200380
:1047000050041007600422018A043601C1040E011E
:10471000CF040100C004D004440161052604000058
:104720007D1D0100632C001E9601A01E5A01001F72
:104730000806101F0606201F0806301F0806401F27
:104740000606511F0700591F521F5B1F541F5D1F94
:10475000561F5F1F601F0806701F0E00BA1FBB1F89
:10476000C81FC91FCA1FCB1FDA1FDB1FF81FF91F85
:10477000EA1FEB1FFA1FFB1F801F0806901F080689
:10478000A01F0806B01F0400B81FB91FB21FBC1F2E
:10479000CC1F0100C31FD01F0206E01F0206E51F49
:1047A0000100EC1FF21F0100FC1F4E21010032210D
:1047B00070211002842101008321D0241A05302C9D
:1047C0002F04602C0201672C0601752C0201802C3D
:1047D0006401002D260841FF1A030000FC47000871
:1047E000000000202C000000E021000828480008FC
:1047F0002C0000200C760000F021000800000000D2
:104800000100000000000000010000001000000096
:10481000000000000024F400000000000000000080
:08482000000000000000000090
:04000005080001AD41
:00000001FF
